:020000041800E2
:1000000091A0010043534B5943534B59000000004A
:1000100000000000000000000000000000000000E0
:1000200000000000000000000000000000000000D0
:1000300000000000000000000000000000000000C0
:1000400044000018737004309701000893818109FF
:10005000170500001305051F136535007310553093
:10006000096573200530138501F27310753037056B
:1000700010007310557C17510008130121C5EF3093
:10008000006E130500006304A000029519A0EF3074
:10009000802A01A000000000000000000000000015
:1000A0000000000000000000000000000000000050
:1000B0000000000000000000000000000000000040
:1000C000130181FB16C21AC4F322103473232034A7
:1000D0009AC096C27360043006C01EC62AC82ECAD3
:1000E00032CC36CE3AD03ED242D446D672D876DA28
:1000F0007ADC7EDE1373F33F0A03971200089382C3
:100100004293829273700430864513F5F53F37E6CB
:1001100000E0130606102A968306060005471347DB
:10012000F7FFB377D7002300F60089629382028835
:1001300073A002307390253496427390123482403B
:1001400092422243B2434245D2456246F2460257AA
:1001500092572258B258425ED25E625FF25F13013C
:100160008104730020300100711116C0F322203485
:1001700063C4020A110197120008938222C293827B
:10018000C2F723A0120023A2220023A4320023A638
:10019000420023AA620023AC720023AE820023A097
:1001A000920223A2A20223A4B20223A6C20223A87F
:1001B000D20223AAE20223ACF20223AE020323A05E
:1001C000120523A2220523A4320523A6420523A853
:1001D000520523AA620523AC720523AE820523A033
:1001E000920723A2A20723A4B20723A6C20723A82B
:1001F000D20723AAE20723ACF2077325103423AEFB
:10020000A2067325003023A0A20816858322C1FF11
:100210002A8116C8EF30807F824211016FF05FEAB9
:100220001300000013000000130000001300000082
:100230001300000013000000130000001300000072
:1002400025B70000000000000000000000000000D2
:10025000000000000000000000000000000000009E
:10026000AA88AE873288368546836396062097A68D
:1002700000009386E68A63FFC50A41676375E60A54
:100280001307F00F3337C7000E073355E600AA9661
:1002900083C60600130500023697B306E540630BDC
:1002A000E500B395D70033D7E8003318D600D98DD1
:1002B0003393D80093580801B3D6150313160801D9
:1002C00041829357030133F715033685B305D602F0
:1002D0004207D98F63FCB700C2971385F6FF63E727
:1002E000070163F5B7001385E6FFC2978D8F33F7DB
:1002F0001703420313530301B3D7170342073363B2
:100300006700B306F6023E86637BD30042931386F2
:10031000F7FF636603016374D3001386E7FF4205AA
:10032000518D81455DA8370500014147E36FA6F473
:100330006147A1BF01E605473358C7024167637FA4
:10034000E8081307F00F6373070121453357A8002E
:10035000BA9603C70600130600022A97B306E640C2
:100360006315E608B38707418545935808011316BE
:100370000801418213570301B3F61703B3D71703DC
:10038000C206558F330EF6023E85637CC701429745
:100390001385F7FF636707016375C7011385E7FFDF
:1003A00042973307C741B37717034203135303013F
:1003B00033571703C20733E36700B306E6023A86F2
:1003C000637BD30042931306F7FF636603016374F4
:1003D000D3001306E7FF4205518D828037070001E5
:1003E0004145E365E8F6614595B73318D80033D544
:1003F000E7003393D800B397D70033D7E80093587A
:1004000008013366F7003377150393170801C1839A
:10041000935506013355150342074D8FB386A70246
:10042000AA85637CD70042979305F5FF63670701B0
:100430006375D7009305E5FF4297B306D74033F7BE
:10044000160342064182B3D6160342073385D7020C
:10045000B367C700368763FCA700C2971387F6FF10
:1004600063E7070163F5A7001387E6FFC297C2059C
:10047000898FD98DDDBD63E2D514416763FFE60244
:100480001307F00FB335D7008E0533D5B600179795
:1004900000001307E7682A970347070013050002C7
:1004A0002E97B305E5406311E5020545E3E7F6F253
:1004B00033B5C800134515000DB737070001C14516
:1004C000E3E5E6FCE145D1B73358E600B396B60064
:1004D0003368D80033D3E700935E0801B376D303C3
:1004E000B397B70033D7E800331EB6003366F70082
:1004F00093170801C183135706013353D303C20670
:10050000558F338F67021A85637CE7014297130585
:10051000F3FF636707016375E7011305E3FF429784
:100520003307E741B376D7033357D703C206338384
:10053000E70293170601C183D58F3A8663FC6700F3
:10054000C2971306F7FF63E7070163F56700130619
:10055000E7FFC2974205C16E518D9386FEFF135689
:100560000E0113580501B38767403373D500B37686
:10057000DE00330ED302B306D80213570E01330345
:10058000C30236931A973308C8026373D70076986C
:1005900093560701369863E00703E39407D9C167D0
:1005A000FD177D8F4207337EFE00B398B800729727
:1005B0008145E3F4E8E27D15ADB38145014531BDE8
:1005C0002A833288B6872E876395061C979600008B
:1005D0009386065563F6C50AC168637C16099308BD
:1005E000F00F63F3C800A147B358F600C69683C660
:1005F0000600B69793060002B388F640638CF600B7
:10060000B3951501B357F3003318160133E7B7005C
:100610003315130193550801B377B7021316080178
:100620004182935605013357B702C207DD8E330767
:10063000E60263F8E600C29663E5060163F3E600AE
:10064000C296998EB3F7B60242054181B3D6B6027F
:10065000C2075D8DB306D6026378D5004295636507
:1006600005016373D5004295158D335515018145FC
:100670008280B7080001C147E36816F7E147ADB7CC
:1006800001E605473358C70241676373E80813075B
:10069000F00F63730701A1473357F800BA9603C6FA
:1006A00006003E9693070002B388C7406399C706C9
:1006B000B38505419356080193170801C18313566A
:1006C000050133F7D502B3D5D5024207518FB38563
:1006D000B7026378B7004297636507016373B70099
:1006E0004297B305B74033F7D50242054181B3D5F0
:1006F000D502B385B702931707015D8D6378B50006
:100700004295636505016373B50042950D8DB1BFD8
:1007100037070001C147E361E8F8E147B5BF331887
:100720001801B3D6C5009357080133F7F602B39505
:1007300015013356C3004D8E93150801C181331541
:10074000130113530601B3D6F6024207336767005D
:10075000B386D5026378D700429763650701637358
:10076000D7004297B306D74033F7F60242064182DC
:10077000B3D6F6024207B386D502B365C70063F865
:10078000D500C29563E5050163F3D500C295958D4B
:1007900015B7E3EFD5ECC16763F4F6049308F00FE7
:1007A000B3B7D8008E07B3D8F60017980000130827
:1007B0002837469883480800BE989307000233887C
:1007C00017416396170363E4B6006369C3003305FA
:1007D000C340958D3337A3003387E540BA8549BDC3
:1007E00037080001C147E3E006FDE1476DBFB3579D
:1007F0001601B396060133EED70033D71501135F08
:100800000E01B31E06013376E703B3950501B35716
:100810001301CD8F93150E01C1813315030193D6BA
:1008200007013357E7034206D18E3383E5023A8648
:1008300063FC6600F2961306F7FF63E7C60163F5F3
:1008400066001306E7FFF296B386664033F3E603CD
:10085000B3D6E60342033387D50293950701C181DE
:10086000B365B300B68763FCE500F2959387F6FFA6
:1008700063E7C50163F5E5009387E6FFF29542065D
:10088000416F5D8E9306FFFF3373D600998D4182D1
:1008900013D70E01B3F6DE00B307D302B306D602B8
:1008A0003303E3023306E602369313D707011A97A0
:1008B0006373D7007A9693560701B29641667D1608
:1008C000718F4207F18FBA9763E6D500639BD5001D
:1008D0006379F5003386D741B3B7C700F2979D8E91
:1008E000B287B307F5403335F500958D898DB39800
:1008F000150133D5070133E5A800B3D505018DBB3C
:10090000370810007D180111B377B80013D74501DF
:100910003378D80013D3460122CC8E071374F77FA7
:100920001357D5010E0826CAD98F93D4F501135752
:10093000D6011373F37F06CE4AC84EC6FD823367D5
:100940000701931535000E06330864406398D422DE
:100950006353000F63180302B366C700638306582E
:100960001305F8FF09E92E963335B600BA97AA9712
:10097000B2850544B9A89306F07F631DD80013041F
:10098000F07F4DA29306F07F630ED418B706800067
:10099000558F42859306800363CBA608FD4663C24C
:1009A000A606130800023308A840B3160701B3587F
:1009B000A60033160601B3E616013336C000558E85
:1009C0003357A7002E963335B6003E97B307A700DE
:1009D000B285370780007D8F63060714050413076F
:1009E000F07F630DE448370780FF7D17F98F13F51B
:1009F000150013D71500598D9395F701C98D85837F
:100A000015A2930605FE93080002B356D7000148CD
:100A100063081501130800043305A8403318A70024
:100A20003366C8003336C000558E014761BF598E0A
:100A30003336C000DDBF630B080A330583400DE485
:100A4000B3E6B700638306429306F5FF99E6B295D5
:100A5000BA9733B6C500B29729BF1308F07F631D5C
:100A60000501BA87B28521BF9306F07FE30BD3FE61
:100A7000B7068000D58FAA86130580036343D50689
:100A80007D45634BD502130800023308D8403395E7
:100A90000701B3D8D500B395050133651501B3350A
:100AA000B0004D8DB3D7D700B305C500BA9733B6A4
:100AB000C500B2971A8431BF138506FE9308000261
:100AC00033D8A70001456387160113050004158D6F
:100AD0003395A7004D8D3335A0003365A8008147BD
:100AE000E1B733E5B7003335A000D5BF9306140056
:100AF00013F5E67F3DE1B3E6B70029E4638B0636E4
:100B0000B366C70085C22E96BA973335B600AA974A
:100B1000370780007D8FB28511C7370780FF7D17AB
:100B2000F98F054413F77500630C073413F7F500CC
:100B300091466307D734138745003335B700AA972A
:100B4000BA853DAE99DE598EE30B06E28144B707C4
:100B5000400081451304F07F25A61305F07F638DC7
:100B6000A6302E963335B600BA97AA971395F7019B
:100B70000582B365C500858336846DB76356000D65
:100B800063110308B366C700638D06341305F8FFCD
:100B900011E93386C54033B5C500998F898FB28579
:100BA0000544B1A09306F07FE30BD8DC93068003E5
:100BB00063C8A608FD4663CFA604130800023308E5
:100BC000A840B3160701B358A60033160601B3E6D2
:100BD00016013336C000558E3357A7003386C54003
:100BE00033B5C5003387E740B307A740B28537095F
:100BF000800033F727011DD77D1933F92701AE890E
:100C00005DAA9306F07FE30FD4F0B7068000558FFE
:100C1000428569BF930605FE93080002B356D700CC
:100C2000014863081501130800043305A840331870
:100C3000A7003366C8003336C000558E014779BF20
:100C4000598E3336C000DDBF6305080C3305834081
:100C50001DE833E8B700630808281308F5FF631B95
:100C60000800B305B640B307F7403336B600918F9E
:100C7000B6843DB79308F07F63101503BA87B28539
:100C80001304F07F7DA01308F07FE30903FF37080A
:100C90008000B3E707012A88130580036346050730
:100CA0007D45634D050393080002B38808413395E1
:100CB000170133DE0501B39515013365C501B33561
:100CC000B0004D8DB3D70701B305A640B307F74079
:100CD0003336B600918F1A84B68411BF130508FE0F
:100CE000130E0002B3D8A70001456308C80113051D
:100CF0000004330505413395A7004D8D3335A00021
:100D000033E5A8008147C9B733E5B7003335A00004
:100D1000D5BF130514001375E57F25E933E8B70047
:100D20003365C70021E8631808006302051CBA8711
:100D3000B285B684C5BBE30705DE3388C540B3B8CA
:100D400005013385E74033051541B7088000B378C6
:100D50001501638A0800B305B640B307F740333680
:100D6000B600918FF9B7B365A80063860518AA8706
:100D7000C2854DBB6318080063010518BA87B285A8
:100D8000B684F5BEE30D05BED1B3B389C54033B516
:100D900035013389E7403309A940370580003375B1
:100DA000A90025C9B309B640B307F7403336360169
:100DB0003389C740B684630409064A85EF100043AF
:100DC000130785FFFD4763C2E70693070002998F6B
:100DD0003319E900B3D7F900B3E72701B395E90068
:100DE000634F8706018F930617007D466345D6043F
:100DF00013070002158F3396E70033D5D500B3955E
:100E0000E500498EB335B000D18DB3D7D70001448A
:100E100011BBB3E52901C5F181470144D9A84E852D
:100E2000EF10C03C1305050261BF930785FDB39722
:100E3000F900814575B705171306000233D7E7009F
:100E400001456387C60013050004158D3395A7007F
:100E50004D8D3335A000B365A70081474DBF198C78
:100E6000370780FF7D17F98F75B9BA87B2852A8455
:100E700055B9BA87B2857DB11304F07F81478145AA
:100E8000370780007D8F11CB05041307F07F630BBC
:100E9000E406370780FF7D17F98F1397D70113D525
:100EA0003500598D1307F07F8D836319E4005D8D44
:100EB000814709C5B707080001458144131744015C
:100EC000B706F07FB207F2406244758FB183FE042B
:100ED000D98F33E797004249D244B249BA850561B8
:100EE0008280428481B1BA87B2852A8499B58147CC
:100EF0008145814471B78147EDBF81458144B70782
:100F0000400089B98147814549BF79714AD013D9D9
:100F1000450126D24ECE52CC5AC862C49394C50025
:100F200006D622D456CA5EC61379F97F2A8A328B36
:100F3000368CB18093D9F501630409089307F07FDB
:100F4000630BF90C935AD5018E04B3E49A00B70AE7
:100F50008000B3EA540113143500130919C0814B02
:100F60001315CC009354C50013554C019375F57FB0
:100F7000135CFC01E1C59307F07F638DF5101395B9
:100F800034009357DB015D8DB7048000C98C931F3B
:100F90003B00138515C0814713972B005D8F7D178C
:100FA0003946B3C68901B305A9406367E6101796B1
:100FB0000000130666AF0A0732971843329702877C
:100FC000B3EAA40063830A06638C04022685EF104B
:100FD000E021930755FF71476349F702F54A13046F
:100FE00085FFB38AFA40B3948400B35A5A01B3EA36
:100FF0009A0033148A009305D0C03389A54085B781
:10100000EF10C01E13050502E9B7930485FDB31A5E
:101010009A000144CDB7B3EAA400638C0A002A8485
:10102000A68A1309F07F8D4B25BF01440149854BEA
:1010300005BF01441309F07F894B1DB7B3EF64016D
:1010400063830F06638C04022685EF10201AAA859D
:10105000938755FF71476349F702F546938F85FFE4
:101060009D8E3395F401B356DB00B3E4A600B31FA5
:10107000FB019306D0C03385B64031BF5A85EF10CF
:10108000E01693050502E9B7138585FDB314AB009F
:10109000814FC5B7B3EF6401638B0F00DA8F13057F
:1010A000F07F8D47D5BD814401458547F5B5814425
:1010B0001305F07F8947CDB563E6540163969A2AFC
:1010C0006364F42B1396FA01135714009317F40179
:1010D00093DA1A003364E6001395840093D88F01E5
:1010E000B3E8A800418133DEAA02939E080193DE93
:1010F0000E011357040113938F00B3FAAA027286EC
:101100003388CE03C20A33675701637C07014697D1
:101110001306FEFF63671701637507011306EEFFF1
:10112000469733070741335EA70242044180337775
:10113000A702F2823388CE034207418F637C070106
:1011400046979302FEFF63671701637507019302D9
:10115000EEFF46973304074142064168B3625600EA
:10116000130EF8FF13D6020133F7C201135F030118
:10117000337EC301B303EE02B304C6033307EF02A9
:10118000B30FE6033306970013D703013297637357
:101190009700C29F135607017E96C16FFD1F3378DB
:1011A000F7014208B3F3F3011E986367C400968405
:1011B000631EC40263FC07039A9733B76700469720
:1011C0003A949384F2FF63E688006391880263EFA8
:1011D00067006366C400631B860063F907019A9782
:1011E00033B7670046979384E2FF3A943388074108
:1011F000118CB3B707011D8CFD5F6387880EB35F49
:10120000A402135708013374A4027E86B387FE0339
:101210004204598C637CF40046941386FFFF636795
:1012200014016375F4001386EFFF46941D8C335749
:10123000A4024208135808013374A402BA87B38E7B
:10124000EE02420433648800637CD4014694930721
:10125000F7FF636714016375D4019307E7FF4694B2
:1012600042065D8E93170601C183135706013308AA
:10127000EF023304D441330FFF02B38EC703330EA2
:10128000C70393D70E01729FFA9763F4C7014167B2
:101290003A9813D70701429741687D1833F5070143
:1012A0004205B3FE0E0176956366E400631FE41801
:1012B000B28F1DC94694930FF6FF636114036366F2
:1012C000E4006313E418637DA3009317130033B3A2
:1012D00067009A98930FE6FF46943E836314E400F8
:1012E0006304650093EF1F009387F53F635BF00A8B
:1012F00013F77F0001CF13F7FF0011466308C70003
:1013000013864F00B33FF601FE94B28F37070001FA
:10131000658F19C7B70700FFFD17FD8C9387054040
:101320001307E07F6342F70693DF3F001397D40172
:101330003367F70113D53400D2073706F07F320543
:10134000B2502254F18F31815D8DFE06B367D50016
:1013500092540259F249624AD24A424BB24B224C51
:101360003A85BE8545618280FD158147B5B3CE863D
:10137000D684A28FDE870D47638AE70A0547638E0E
:10138000E70A0947E392E7F6014501479307F07F33
:1013900065B7E286CDB7B7040800814F81468D4717
:1013A000D9BF05451D8D130780036348A7087D47F6
:1013B0006349A7049385E541B397B40033D7AF00E1
:1013C000B395BF00D98FB335B000CD8F33D5A4000E
:1013D00013F7770001CF13F7F70011466308C70032
:1013E00013874700B337F7003E95BA873707800069
:1013F000698F39E71317D5018D835D8F0D81814783
:1014000025BF0557B307F74013060002B3D7F40012
:1014100001476306C5001387E5433397E40033674C
:10142000F7013337E000D98F01455DB73705080074
:1014300001479307F07F814601B701450147C1B7D6
:10144000014501478547CDBD7E86B28F61BD13D76B
:101450004501B7071000FD1713D846012A83AA8E4D
:101460001377F77F1305F07FB3F8B700328FF58F4E
:10147000FD811378F87FFD82631AA70033EE6800C0
:10148000054563140E006305E80082806315A8001B
:101490005D8E05457DFA0545E31907FFE397F8FEE4
:1014A000E395EEFF6389D500E31107FE33E568009D
:1014B0003335A000828001458280370710007D17F8
:1014C00013D84501B378B700AA872A831378F87F29
:1014D00013D5F501930EF07F93D54601758F328EAB
:1014E00093F5F57FFD826318D801B3EEF8006387AA
:1014F0000E06795582806396D501B36EC700E39AD4
:101500000EFE631F0804B3E7F80093B7170099E1D4
:10151000598E21C2639A07006314D50063DA05016E
:10152000630705027D5582807D5599C63685828088
:101530006355B800E30805FE8280E36317FF639CF0
:10154000E800E36F6EFCE367C3FF01458280054559
:101550008280E5FFF1B7E3EFE8FCC5BFE38F05F953
:10156000E39C05FA81476DB7370710007D1713D844
:101570004501B378B700AA872A831378F87F13D57B
:10158000F501930EF07F93D54601758F328E93F55A
:10159000F57FFD826318D801B3EEF80063870E066D
:1015A000094582806396D501B36EC700E39A0EFEAB
:1015B000631F0804B3E7F80093B7170099E1598E49
:1015C00021C2639A07006314D50063DA050163073B
:1015D00005027D5582807D5599C63685828063558A
:1015E000B800E30805FE8280E36317FF639CE80010
:1015F000E36F6EFCE367C3FF01458280054582808F
:10160000E5FFF1B7E3EFE8FCC5BFE38F05F9E39C25
:1016100005FA81476DB779714ECE93D9450122D431
:1016200026D252CC56CA5EC69394C50006D64AD07E
:101630005AC893F9F97F2A84B28BB68AB18013DA3B
:10164000F501638109089307F07F6386F90C9357CE
:10165000D5018E04DD8CB7078000DD8C13193500B1
:10166000938919C0014B13D54A011394CA0013750D
:10167000F57F318093DAFA0169C19307F07F630740
:10168000F51093D7DB010E045D8CB70780005D8CED
:10169000130515C093973B00014793162B00D98E75
:1016A0004E95FD16394833465A019305150063607F
:1016B000D810178500001305E5428A06AA969442C1
:1016C000AA96828633E9A40063000906638A0402AD
:1016D0002685EF00B031130755FFF14763C7E702D6
:1016E000F547130985FF998FB3942401B357F4008C
:1016F000DD8C331924019309D0C0B389A9409DB76B
:10170000EF00D02E13050502F9B7930485FDB3143D
:1017100094000149CDB733E9A400630B09002A897D
:101720009309F07F0D4B81B781448149054B25BF5B
:1017300081449309F07F094B3DB7B3677401B9CF7A
:10174000630A04022285EF00702A930655FFF147D1
:1017500063C8D7027547930785FF158F3314F400CC
:1017600033D7EB00598CB397FB001307D0C0330578
:10177000A7401DB75E85EF00702713050502F1B77E
:10178000130485FD33948B008147C5B7B36774019B
:1017900091CBDE871305F07F0D4701B7014401456A
:1017A0000547E5BD01441305F07F0947FDB5416FCD
:1017B000930EFFFF1357090193D807013379D9011D
:1017C000B3F7D70133882803B306F902B30FF70242
:1017D0003303F80113D806011A98330E1703637305
:1017E000F8017A9E935308013378D801B3F6D601F5
:1017F000135F0401B372D40142083698B30E570246
:10180000B306590233092F033303D90113D9060153
:101810001A993307E7036374D90141631A97935EFA
:101820000901C169BA9E1387F9FF3379E900F98E7E
:1018300013D404014209F98C338797023699CA936D
:101840003303F402B3869802B3878802B388660034
:1018500093560701C69663F36600CE9793D80601A8
:10186000C169B38FF8009387F9FFB3889202FD8EA8
:101870007D8FC206BA96B3075402B3049F023303A6
:101880008F02BE9413D40801A29463F3F4004E9324
:10189000C167FD1733F7F400B3F8F80042071E9E46
:1018A000469733392E01769733042701369EB33697
:1018B000DE00B308F401338FD8003337D701333457
:1018C0002401598CC180B3B8F801B336DF002694E7
:1018D000B3E6D80036941A9493577F0126045D8CA2
:1018E00093179E00B3E70701B337F000135E7E0144
:1018F00013179F00B3E7C701D98F37070001618F26
:101900004DCB13D71700858BD98F1317F401D98FBF
:1019100005809386F53F6350D00A13F7770001CF17
:1019200013F7F70011456308A70013874700B33783
:10193000F7003E94BA8737070001618F19C7370750
:1019400000FF7D17798C938605401307E07F634E77
:10195000D70E13D737009317D401D98F0D80139763
:1019600046013204B706F07F758F3180598C7E06B0
:10197000B2503367C400225492540259F249624A69
:10198000D24A424BB24B3E85BA854561828052862F
:101990002684CA875A8789466309D70A8D46630F0A
:1019A000D7088546E317D7F6014481479DA05686A0
:1019B000DDB7AA85B9BF0545158D13078003E3453B
:1019C000A7FE7D476349A7049385E5413317B4001B
:1019D000B3D6A700B397B700558FB337F000D98FB0
:1019E0003354A40013F7770001CF13F7F7009146A3
:1019F0006308D70013874700B337F7003E94BA87D0
:101A000037078000618F39E71317D4018D83D98F91
:101A10000D808146A9B70557158F1308000233576B
:101A2000E4008146630605019385E543B316B400DF
:101A3000D58FB337F000D98F01446DB73704080054
:101A400081479306F07F014619BF01448147930601
:101A5000F07F31B701448147854611B73708100040
:101A60007D180111B377B80013D745013378D8003A
:101A700013D3460122CC8E071374F77F1357D50179
:101A800026CAD98F93D4F5011357D6019315350083
:101A90000E0806CE4AC84EC61373F37F1305F07FB7
:101AA000FD82336707010E066315A3003365C70087
:101AB00019E193C616003308644063989622635375
:101AC000000F63180302B366C7006381065813054D
:101AD000F8FF09E92E963335B600BA97AA97B28572
:101AE0000544B9A89306F07F631DD8001304F07F66
:101AF0004DA29306F07F630ED418B7068000558F71
:101B000042859306800363CBA608FD4663C2A60602
:101B1000130800023308A840B3160701B358A60003
:101B200033160601B3E616013336C000558E33571F
:101B3000A7002E963335B6003E97B307A700B285AF
:101B4000370780007D8F6306071405041307F07FB5
:101B5000630BE448370780FF7D17F98F13F51500F5
:101B600013D71500598D9395F701C98D858315A25B
:101B7000930605FE93080002B356D7000148630898
:101B80001501130800043305A8403318A700336675
:101B9000C8003336C000558E014761BF598E3336B9
:101BA000C000DDBF630B080A330583400DE4B3E6D4
:101BB000B700638106429306F5FF99E6B295BA979E
:101BC00033B6C500B29729BF1308F07F631D050126
:101BD000BA87B28521BF9306F07FE30BD3FEB70629
:101BE0008000D58FAA86130580036343D5067D4503
:101BF000634BD502130800023308D8403395070120
:101C0000B3D8D500B395050133651501B335B000E0
:101C10004D8DB3D7D700B305C500BA9733B6C5000D
:101C2000B2971A8431BF138506FE9308000233D899
:101C3000A70001456387160113050004158D339530
:101C4000A7004D8D3335A0003365A8008147E1B76B
:101C500033E5B7003335A000D5BF9306140013F564
:101C6000E67F3DE1B3E6B70029E463890636B36653
:101C7000C70085C22E96BA973335B600AA973707A4
:101C800080007D8FB28511C7370780FF7D17F98FE0
:101C9000054413F77500630A073413F7F5009146FE
:101CA0006305D734138745003335B700AA97BA8543
:101CB0002DAE99DE598EE30B06E28144B707400052
:101CC00081451304F07F15A61305F07F638BA630C2
:101CD0002E963335B600BA97AA971395F701058269
:101CE000B365C500858336846DB76356000D6311F7
:101CF0000308B366C700638B06341305F8FF11E9C8
:101D00003386C54033B5C500998F898FB2850544A8
:101D1000B1A09306F07FE30BD8DC9306800363C881
:101D2000A608FD4663CFA604130800023308A840A6
:101D3000B3160701B358A60033160601B3E6160121
:101D40003336C000558E3357A7003386C54033B5B0
:101D5000C5003387E740B307A740B2853709800045
:101D600033F727011DD77D1933F92701AE895DAA05
:101D70009306F07FE30FD4F0B7068000558F4285BD
:101D800069BF930605FE93080002B356D7000148C9
:101D900063081501130800043305A8403318A70091
:101DA0003366C8003336C000558E014779BF598E5F
:101DB0003336C000DDBF6305080C330583401DE8E2
:101DC00033E8B700630608281308F5FF631B080013
:101DD000B305B640B307F7403336B600918FB684EB
:101DE0003DB79308F07F63101503BA87B2851304DB
:101DF000F07F7DA01308F07FE30903FF3708800020
:101E0000B3E707012A8813058003634605077D456C
:101E1000634D050393080002B38808413395170109
:101E200033DE0501B39515013365C501B335B00047
:101E30004D8DB3D70701B305A640B307F74033363E
:101E4000B600918F1A84B68411BF130508FE130ED5
:101E50000002B3D8A70001456308C80113050004B8
:101E6000330505413395A7004D8D3335A00033E58B
:101E7000A8008147C9B733E5B7003335A000D5BF07
:101E8000130514001375E57F25E933E8B7003365C2
:101E9000C70021E8631808006300051CBA87B285F3
:101EA000B684C5BBE30705DE3388C540B3B805017A
:101EB0003385E74033051541B7088000B378150135
:101EC000638A0800B305B640B307F7403336B6005F
:101ED000918FF9B7B365A80063840518AA87C285F6
:101EE0004DBB63180800630F0516BA87B285B68428
:101EF000F5BEE30D05BED1B3B389C54033B5350199
:101F00003389E7403309A940370580003375A900BC
:101F10003DC5B309B640B307F740333636013389C0
:101F2000C740B684630309064A85C924130785FFA1
:101F3000FD4763C1E70693070002998F3319E90053
:101F4000B3D7F900B3E72701B395E900634E8706DD
:101F5000018F930617007D466344D60413070002E1
:101F6000158F3396E70033D5D500B395E500498E3C
:101F7000B335B000D18DB3D7D700014419BBB3E559
:101F80002901CDF181470144D1A84E85852413054F
:101F9000050269BF930785FDB397F90081457DB7B9
:101FA00005171306000233D7E70001456387C60013
:101FB00013050004158D3395A7004D8D3335A00012
:101FC000B365A700814755BF198C370780FF7D1780
:101FD000F98FC1B1BA87B2852A8465B9BA87B2854B
:101FE0004DB91304F07F81478145370780007D8F0D
:101FF00011CB05041307F07F630BE406370780FF5E
:102000007D17F98F1397D70113D53500598D130715
:10201000F07F8D836319E4005D8D814709C5B707A3
:1020200008000145814413174401B706F07FB20749
:10203000F2406244758FB183FE04D98F33E7970075
:102040004249D244B249BA8505618280428491B145
:10205000BA87B2852A84A9B581478145814471B781
:102060008147EDBF81458144B707400099B9814759
:10207000814549BF13D74501B70610009387F6FF86
:102080001377F77F1306E03FED8FFD816354E6047D
:102090001306D0416358E600370500801345F5FF6D
:1020A0002E958280D58F93063043998E7D46634D61
:1020B000D6001307D7BEB397E7003355D5005D8D23
:1020C00099C93305A040828013053041198D33D55D
:1020D000A700FDB70145828013D7450137081000DE
:1020E0009307F8FF1377F77F1306E03FED8FAA867B
:1020F000FD816351E6041306F0410D8E1385F5FF53
:10210000635BC702014585E913053043198D7D46A0
:10211000B3E70701634AA6001307D7BEB397E700EA
:1021200033D5A6005D8D828013053041198D33D5DE
:10213000A700828001458280411106C622C426C2C2
:1021400021CD9357F54133C4A7001D8C9354F5015D
:10215000228569281307E041A947098F63C8A702B0
:10216000AD47898F5505B357F4003314A400268575
:10217000B2075207B1837E05D98FB24033E7A7007B
:10218000228522449244BA85410182805515B317B5
:10219000A40026850144E9BF01478147E5BF4111FD
:1021A00022C406C62A8421C191201307E041A94711
:1021B000098F63C4A702AD47898F5505B357F40053
:1021C0003314A400B2402285B20722445207B183DF
:1021D000B366F700B68541018280930755FFB317B8
:1021E000F4000144C5B781470147E9BFC167637681
:1021F000F5029307F00FB3B7A7008E07130700028D
:102200001D8F3355F50097870000938767913E95A2
:10221000034505003305A740828037070001C14709
:10222000E36EE5FCE147D9BF8D4763F0C702B367B2
:10223000B5008D8B8D469DEF18419C41631CF702C4
:10224000711611059105E3E9C6FE9306F6FF0DC26E
:102250008506AA9619A0630DD5008347050003C71C
:10226000050005058505E388E7FE3385E7408280A4
:10227000014582809306F6FFE1BF000093364600D9
:10228000AA823303C500A5EEB346B5008D8AA5EA40
:10229000937635009143BDEE9373C3FF138303FE22
:1022A0006362A3047D8A0100984118C1DC415CC1CE
:1022B00003A885002324050183A8C5002326150152
:1022C000984918C9DC495CC903A88501232C05017C
:1022D00083A8C50193850502232E15011305050268
:1022E000E374A3FC1383C3FF6369A3000D8A9841C1
:1022F000910518C11105E37CA3FE3303C50009CA8B
:102300000387050085052300E5000505E36A65FEF2
:1023100016858280B386D340B68303870500850582
:10232000FD162300E5000505EDFA330676409336E9
:102330002600F1F695B700003D432A876375C30276
:102340009377F700C9E363970506937606FF3D8A06
:10235000BA960CC34CC30CC74CC74107E36BD7FEFE
:10236000631306008280B306C3408A06970200000A
:1023700096966780A6002307B700A306B70023063A
:10238000B700A305B7002305B700A304B7002304D3
:10239000B700A303B7002303B700A302B7002302CB
:1023A000B700A301B7002301B700A300B7002300C3
:1023B000B700828093F5F50F93968500D58D93969F
:1023C0000501D58D59B79396270097020000969680
:1023D0008682E78086FA9680C1171D8F3E96E37449
:1023E000C3F895B700000000937735002A879DEF6A
:1023F000B7867F7F9386F6F7FD5510431107B377B5
:10240000D600B697D18FD58FE389B7FE8346C7FF35
:102410000346D7FF8347E7FF098F95C6630206028D
:102420003335F0003A9579158280F9D28347070059
:10243000050793763700F5FB098F1305F7FF8280B8
:102440001305D7FF82801305C7FF82800000630E4B
:102450000606B367B5008D8BBDEB8D4763F9C706E4
:102460003703FFFEB78880801303F3EF93880808D3
:102470000D4E09A8711631CA63990704110591051B
:102480006377CE0418419441B30767001348F7FF00
:10249000B3F70701B3F71701E30ED7FC8346050036
:1024A00003C80500639F06032A8709A8834607001F
:1024B00003C8050063970603638907000507934770
:1024C000F7FFB2978505AA97F5F20145828083460A
:1024D000050003C805006316D8008547E316F6FC1F
:1024E000EDB7338506418280B3E7A5008D8B2A873F
:1024F000B1EB8D4763F8C7043703FFFEB7888080D0
:102500001303F3EF938808080D4E9441B3876600D8
:1025100013C8F6FFB3F70701B3F7170185E714C334
:10252000711611079105E362CEFE8505930717002A
:1025300011CE83C6F5FF1308F6FFA38FD7FE81CA1D
:102540003E87428685059307170065F682803A9696
:10255000630808008507A38F07FEE39DC7FE8280FE
:102560008280411106C622C426C24AC009E97D59AB
:10257000B240224492444A850249410182802A861F
:102580002A843D45AE84EF10A02B2A896DF13717C0
:10259000002093972400130707DA3E97B7A7001887
:1025A0009387C7D8B3859700232A0400232C0400FF
:1025B00000C383C50500044081464CCC13050003CD
:1025C0007D4863E0B60403454400228693850100FC
:1025D000EF00B04D03454400A12883A7C43393E71F
:1025E000170023AEF432F326003073700430B717AF
:1025F0000020938707DB9843050798C37390063044
:1026000085BFB387A602104385061042B297D04714
:10261000799AD0C723AC07019053799A90D355B7D4
:10262000374702601C43014593E717001CC38280B3
:10263000B71780E00A053E958347150093F7F70F1B
:1026400093E71700A300F5008280732520341375EB
:10265000F53F828082803707036014438547B39734
:10266000A700FD8E6397D7023D469377F50F93063B
:1026700087006377A600C11793F7F70F9306C7008B
:10268000984286070D453315F500798D3355F500D1
:1026900082801145828063030506411122C42A8687
:1026A0002A841305800206C6EF10801931E59307CE
:1026B0001010232A0400232C0400232E04002322BC
:1026C00004022326040223280402232A0402231CD2
:1026D000F402230D0402232E0402232004041C40D0
:1026E000B24022449847137707F098C7984713677A
:1026F000370098C7410182807D55D5B77D558280CE
:1027000037180020B2883A86130748DB2302B70047
:1027100085452302B70293B5160023200700A302C4
:102720000700230AB7002328170191C2FD1654C7DA
:102730002324070023260702BE86370710009305CF
:1027400048DB17E3FF076700A3CB397126DA52D4C1
:1027500056D25AD0BE8406DE22DC4AD84ED65ECE91
:1027600062CC66CA6AC86EC689472A8BB28A3A8A20
:102770006391F50C814B99C2938BF6FF37140020BF
:102780002689814901451D4C130444DB994C854D34
:10279000094D63140902638309004E85F2506254A7
:1027A000D2544259B259225A925A025BF24B624CAD
:1027B000D24C424DB24D21618280A14763639C009F
:1027C000CA87CA8463F32701BE8481460146A28575
:1027D0005A8523200400231294012302B403230A00
:1027E000B4012326040297E0FF07E78020DCE344DE
:1027F00005FAA6865286A2855A8523200400231254
:10280000A4012302B403230A04002328540123262D
:102810007401232404002326040297E0FF07E780C5
:10282000E0D8E34A05F6A69A269A33099940A69974
:102830008DB737160020930746DB05472382E70252
:1028400013B716002382B70023A00700A382070056
:10285000238AE70023A85701B28591C2FD1662546E
:10286000F2504259B259925AF24B624CD24C424DFC
:10287000B24DD4C75286A686225AD2545A85025BDC
:1028800023A4070023A60702938545DB216117E3F4
:10289000FF076700A3D109E97D5582807D55F2408D
:1028A0006244D244056182800111B727001822CC0E
:1028B00026CA06CE9387A7743CC9B727001893870A
:1028C00007702A84232405047CC937150020AE84B0
:1028D000130640038145130545DB02C6B13CA685BE
:1028E0002285553B45FD032844058D4778008146E8
:1028F00001469305F00922850298E34205FAB247A2
:102900003707FF009305C40413950701798D13D78A
:1029100007011377F70F598D4167130707F0F98FF8
:102920005D8D21212DDD71559DBF01114AC83719DB
:1029300000204EC652C4AE892A8A13064003814540
:10294000130549DB22CC06CE26CAFD328947130483
:1029500049DB6388F9041147638DE9048547FD5419
:102960006392F9028D472302F40023023403930596
:1029700049DB528597E0FF07E78060B5B334A000DC
:10298000B3049040130549DB1306400381456D32C3
:10299000F24062444249B249224A2685D244056146
:1029A00082809307B0FB2302F40085471CC45CD4EB
:1029B0007DBF2D572302E4001CC45CD423043403E0
:1029C0007DB7011122CC26CA4AC806CEAA8461640A
:1029D000EF0050732A891304F469EF00B0723305D5
:1029E00025416379A4007555F2406244D2444249BE
:1029F0000561828003A8440585471307F1008146DD
:102A000001469545268502988547E318F5FC8347DE
:102A1000F100858BF9F30145C1BF7D571DC163826C
:102A200005027C4599CF984398C1D843D8C1D8476F
:102A300098C5984BDC4B98C9DCC9B7070018DCC5B2
:102A400001473A8582803287B68719C9630A060032
:102A500063880600032845052E868D468D4502882D
:102A60007D55828061C5797122D452CC06D626D29A
:102A70004AD04ECE56CA5AC85EC662C42A84328A2A
:102A80007D5549CA63880608032BC404AE84368981
:102A900083274B0133F7F502998F63F3D7003E8903
:102AA000B3899600814A854B032804058147014775
:102AB0008146014699452285032CC4040298634B44
:102AC00005042285FD3D6347050483278C0091465C
:102AD00063857701814691E38D4603280405CA8703
:102AE00052872686894522850298634505022A8CED
:102AF0002285C13D63400502CA944A9A03294B01CD
:102B0000E29AB307990063F4F90033899940E3ED41
:102B100034F95685B250225492540259F249624A0D
:102B2000D24A424BB24B224C456182807D55828015
:102B300079C9630A060C01114EC68329C50422CC4B
:102B400006CE83A7090126CA4AC83377F6022A842B
:102B50004DEFB3F7F502D5EB6399050483A7C900E0
:102B600001496395C704032805058147014781464C
:102B70000146994502986341050822859935634DC0
:102B80000506032804058147014781460146930550
:102B90000006228502986341050622856244F240C0
:102BA000D2444249B249056129BD2E89B304B60019
:102BB000032804058147014781460146994522853E
:102BC0000298634B05022285ED3B6347050203280B
:102BD0000405814701478D464A86930500022285F8
:102BE0000298634B05002285E93B6347050083A7F4
:102BF00009013E99E36E99FAF2406244D244424997
:102C0000B249056182807D5582807D55F5B719E115
:102C10007D55828075DEE38D06FE032805050111D2
:102C200022CC26CA4AC84EC606CE3689B284AE89A0
:102C3000814701478146014699452A8402986345A8
:102C400005022285BD3B6341050203280405CA87AE
:102C5000268781460146CE85228502986346050077
:102C600022858533635305007D55F2406244D2448A
:102C70004249B2490561828019E17D558280011186
:102C80009387E5FF22CC26CA06CE4AC8F59B2A8444
:102C9000AE8499CB85476385F5067D55F240624445
:102CA000D244424905618280032845058547780062
:102CB0008146014695450329C5040298E34F05FC6A
:102CC0000328440585471307D10081460146930533
:102CD000500322850298E34205FC03270902854739
:102CE0006314F7028347D10085461306D10093E7AA
:102CF0002700A306F100930510032285093F59FD23
:102D0000A68522851D3159BFB397E7000357C1003F
:102D100089467000D98F2316F1008545F9BF09C592
:102D200017D3FF0767006350828037A70018930608
:102D3000C7C681471307C7C6214603A84600631AC2
:102D4000A80093064002B387D7020145BA979CC1F9
:102D50008280850793864602E391C7FE7D55828077
:102D60001441984A058B11C7D846584919C30C4DD0
:102D70000287828001E97D5582807D55B2402244E0
:102D800041018280411122C42A862A84254506C633
:102D9000EF00102B7DF11C4023A4070023A00700A7
:102DA000F1BF11C51C4123A4070023A007008280A6
:102DB00025C9AA877D55BDC5411122C426C206C6B4
:102DC00003C5570084432E84CD2399679305803E25
:102DD0009387771A3355B50263EF87023304A40251
:102DE0003354B4029C4493E727009CC4A9476373FF
:102DF000F400294480C09C44B2402244F99B9CC406
:102E00009C44014593E717009CC49C44ED9B9CC4E3
:102E10009244410182803354B4023304A402D9B7EE
:102E20007D558280828009C91C41984713674700FD
:102E300098C79847799B98C7828001C51C41C843B1
:102E400082800145828001C51C4188438280014502
:102E5000828005C9411106C622C44CC92A8410CDFE
:102E60002A8603454500B7350018938505D63529D0
:102E700003454400EFF0CFFBB2402244014541013D
:102E800082807D55828011CD1441B70700107D5698
:102E9000F85E098B11E7FD17E39CC7FE8CC211A0F9
:102EA000F5FF8280011122CC06CE26CA4AC84EC642
:102EB00052C456C25AC07D5415CD638D05022A8472
:102EC000368AB2892E89EF00F02304402A8B014410
:102ED00083AA4400DC40E99BDCC0635B3401FC5CFA
:102EE000A18B85E7EF00102233056541E36945FFBB
:102EF00023A25401F24022856244D2444249B2499D
:102F0000224A924A024B056182809840B3078900A9
:102F100005042380E700EF00F01E2A8B7DBF397186
:102F200022DC06DE26DA4AD84ED652D47D5455C568
:102F30000041AA84034555002E896C00B689328A67
:102F400097D0FF07E780406A03C554002C0097D054
:102F5000FF07E780606F2945EF00F023894763078B
:102F6000F90863E42705994563130900954522850F
:102F7000E52421E185476300FA088947630AFA06D8
:102F800063190A0222858D2C0DE58547638AF906AF
:102F900089476385F9068545639D090022852524B7
:102FA0003334A0003304804031A08D47A145E300B5
:102FB000F9FC7D5403C554002C0097D0FF07E7802F
:102FC000206F03C554006C0097D0FF07E780406E68
:102FD000814641460C082685F135F250228562541F
:102FE000D2544259B259225A216182809D4541B73B
:102FF0002285052451BF2285352C79B7E31B09FAB8
:10300000894569BF184193071004FD1793F7F70F1F
:1030100091E382801443D5BF411126C206C622C463
:10302000FD5421C12A862A840545EF007001AA8437
:103030000DE91C4013077008228598C7D843232444
:1030400004022320040223220402232E0400232648
:10305000040223280402759BD8C3D843699BD8C3B4
:103060005537B2402244268592444101828001E9CD
:103070007D5582807D55B2402244410182804111BC
:1030800022C42A862A84294506C6EF00607B7DF18A
:103090001C4023A0070023A2070023A60700E1BFCE
:1030A00019E17D558280411122C426C206C6004125
:1030B00003455500AE84E52C9305803E3355B5029B
:1030C000814785464147B3059502C1813396F60095
:1030D000637BB6008507E39BE7FE7D55B240224443
:1030E0009244410182801840799B18C058406D9BE2
:1030F00058C058403E9758C0584092071377F7FB86
:1031000058C05840BA975CC01C40858B81CB1C408E
:1031100093E717001CC0930760075CC401457DBF9F
:1031200019C91C41014598431367170098C3130739
:103130006007D8C782807D55828008414D813D89D6
:10314000050506058280411102C402C6A14763F647
:10315000C70241018280B386F50083C606003800AD
:103160003E972300D7008507E317F6FEA2472324E6
:10317000F50AB2472326F50AE9BF8147F5B781472B
:10318000B7060070785D058B19C76394D7007D552D
:1031900082808507C5BF370500903E951335150021
:1031A0003305A0408280370700705C4993F7170809
:1031B00089E77C5D858B91E3D9B75C491C417D171C
:1031C0006DF77D558280011122CC06CE2A842EC651
:1031D000D93F01E9B24585476399F5005C44ED9B11
:1031E0005CC4F2406244056182808947E39BF5FE3E
:1031F0005C4493E74700EDB7411122C406C62A8418
:103200005D3701E55C44DD9B5CC4B2402244410172
:103210008280411122C406C62A84713701E95C44C8
:1032200093E787005CC45C44BD9B5CC4B24022440D
:1032300041018280411122C406C62A84AD3709E9C2
:103240005C4493E787005CC45C4493E707015CC47B
:10325000B240224441018280011122CC06CE2A8450
:103260002EC691375C44B245F24093F7C70F5CC459
:103270005C44ED15DD8D4CC46244056182800F0015
:10328000F00F0F00F00F0B0000010F00F00F0F0008
:10329000F00F82800F00F00F0F00F00F0B001000F6
:1032A0000F00F00F0F00F00F8280931725003715E5
:1032B00000201305C5DE0CC63E9510C18280B7C53F
:1032C0000018138601F293878593630CF6009387A9
:1032D00001003386C74093858593138501F26FE023
:1032E000FFF98280B7C70018938501F2938787930F
:1032F0006383F50213870100BA97371700201386FE
:103300000100130787A93306C740B385B74013856B
:1033100001006FE0BFF6828037150020B73700202C
:10332000130685A99387474C3386C740814513050B
:1033300085A96FF06F80411106C6EF10B024B2402E
:1033400041016F604050797106D6F32700307370E9
:10335000043081450A85213B81450A8591330A85E0
:10336000C13301A003A501FE8280B707004083A7F7
:10337000C75003A501FEBD8B85073385A702828058
:10338000EDB7B707004009ED03A507191D810D89A9
:103390008547B397A70003A501FE3355F502828048
:1033A00003A507192981E5B7E9BF0581D9BF014503
:1033B000C9BF58418547631FF7081C45639FE7183D
:1033C000B7070040D857B706F4FFFD16758FD8D75A
:1033D000D857B70608003706D0FF558FD8D7D4572F
:1033E0007D165845F18ED4D7D45752070176558FA4
:1033F000D8D7D45718497D06819AD4D7D457558F3A
:10340000D8D7D4575849F18ED4D7D4571607558FEB
:10341000B7060200558FD8D793870710D84389661F
:10342000558FD8C3D8439166558FD8C39843136737
:10343000270098C33707004083270710898BEDFFCB
:10344000370700401C4FA18BF5DF370700401C4FAA
:10345000C18BF5DF1C4D1147639BE718B707004090
:1034600093870710D8436D9BD8C3D8431367870051
:10347000D8C398431367270098C3370700408327B2
:103480000710898BEDFF5C4D09476395E71EB70771
:10349000004093870710D843FD769386F67F137715
:1034A000F7BFD8C3D843758FD8C3D8431367071065
:1034B000D8C3D843799BD8C398431367270098C3D0
:1034C0003707004083270710898BEDFF370700403F
:1034D0001C4F858BF5DFB707004093870750D44713
:1034E0001851C19AD4C7D4477D17558FD8C7D8472C
:1034F000B706004013670701D8C783A7C650C18B22
:10350000EDFF93870618904B5851FD751376F6E73B
:1035100090CB904B1E079385F53F518F98CB904BE6
:1035200018556D8E90CB904B2A07518F98CB9C5697
:1035300093E717009CD6B70700409857058B75FF97
:1035400093870750D84BB70602000145558FD8CB5B
:10355000D84B13670740D8CB8280E39D07EEB707AF
:103560000040D857B706F4FFFD16758FD8D7D85747
:103570003706D0FF7D16D8D7D4575845F18ED4D70B
:10358000D45752070176558FD8D7D45718497D069E
:10359000819AD4D7D457558FD8D7D4575849F18E5C
:1035A000D4D7D4571607558FB7060200558FD8D7F2
:1035B00093870710D843916613670720D8C3D84371
:1035C000558FD8C398431367270098C33707004027
:1035D00083270710898BEDFF370700401C4F898B2D
:1035E000F5DF370700401C4FC18BF5DFA5B5054758
:1035F0006392E704B707004093870710D8438966B2
:10360000558FD8C3D84313674700D8C3D84313672F
:103610008700D8C398431367270098C33707004033
:1036200083270710898BEDFF370700401C4FA18BC4
:10363000F5DF91BDE39907E4B707004093870710D2
:10364000D84313670720D8C3D843759BD8C3D84342
:103650005D9BD8C398431367270098C33707004082
:1036600083270710898BEDFF370700401C4F898B9C
:10367000F5DF11BD0D47E390E7E6B70700409387FC
:103680000710D84385669386068013670740D8C322
:10369000D843558FD8C3D84313671700D8C398436E
:1036A0001367270098C33707004083270710898BCB
:1036B000EDFF370700401C4F918BF5DF29BD3971B5
:1036C00022DC37A40018130784FB06DE81471304AD
:1036D00084FBF1461043630AA6008507C207C18335
:1036E0001307C702E398D7FEA9471307C002B387A1
:1036F000E70248003E945C403EC41C443EC65C4425
:103700003EC81C483ECA5C483ECC1C4C3ECE5C4C7D
:103710003ED01C503ED25C503ED41C543ED6513953
:103720001840F250625423A0E1FE21618280F32709
:10373000007C37074000D98F7390077C828041114D
:103740009145454506C697D0FF07E780A0A4B24043
:1037500091454945410117D3FF076700A3A34111D4
:1037600006C622C4E9370F00F00F0F00F00F8D4797
:103770007390177C0F00F00F0F00F00F89369D3605
:10378000113EF53C513E370780E05C43B70680E0D0
:103790000565D183F98B2300F700854501471306A2
:1037A000000493172700B697AA97A38007002380E9
:1037B00007002381B7000507E315C7FED842B716F7
:1037C00080E003C6B6049357570113F7F700A147EB
:1037D0008D45998FB397F5001377F601D98F93F73D
:1037E000F70FA385F6042387B6000D45EFE05FE4ED
:1037F000736004303705B80BD935EFE07FE2371539
:10380000002081451305C5EAEFE0BFD569203714D4
:10381000002001468145130504EDEFF0CF87914567
:10382000130504EDEFF04FC5B7F5FA02130504EDEB
:1038300093850508EFF0AFCE2244B240410101B7B5
:10384000B7A700184205938707D9418193F5F50F73
:10385000984319E37D55828083D667006396A6005E
:1038600083C657006384B600A107DDB765D618C2CA
:1038700083C747002313A600A302B6002302F60065
:1038800001458280B7170020938707F39843050707
:1038900098C38280C5BF411122C437140020B717D6
:1038A00000208145130584F306C623A807F2EFF034
:1038B0006FCC0DE5B7450018014693854589130582
:1038C00084F3EFF00FD919E9130584F32244B240D1
:1038D00089659385057141016FF08FCDB240224417
:1038E00041018280411122C437140020130584F362
:1038F00006C6EFF04FD3130584F32244B2404101D2
:103900006FF02FCA79714AD24ED037190020B719FB
:103910000020930749F3138589F322D452CE56CC65
:103920005EC862C6804306D65ACA130A4006EFF044
:103930008FD1330A4503930A803E130949F3B71B1D
:103940000020294CB35A5A0363090A0293870BF3E8
:10395000138589F303AB0700EFF0EFCE2A841385BC
:1039600089F3EFF08FCD098C83270900335454037A
:10397000330B8B035A94E369F4FC23208900B25083
:103980002285225412598259724AE24A524BC24B42
:10399000324C45618280011122CC4AC856C25AC0BD
:1039A00006CE26CA4EC652C41304F5FFFD5A371977
:1039B0000020130B803E631C5401F2406244D24449
:1039C0004249B249224A924A024B0561828013055C
:1039D00089F3EFF04FC7AA89130589F3EFF0EFC51C
:1039E0002A8A0145EFF07F9CB3546503D2991305F1
:1039F00089F3EFF08FC4637845013305AA40E3688B
:103A000095FE7D144DBF3385A940D5BF011126CA4F
:103A100006CE22CC4AC84EC652C456C25AC0AA8448
:103A2000F325203437A5001893F5F53F1305854895
:103A3000EF10401D2945EF10A01B26890144B7AAAD
:103A400000180D4B7D4A03260900A2890504A285B2
:103A500013850A4A93F93900EF10C01A639569017A
:103A60002945EF10E0181109E31F44FD2945EF1027
:103A70002018EC5C37A500181305C54AEF10801814
:103A800083A5040837A500181305C54BEF10801750
:103A9000B717002083A787F591C3829701A0411132
:103AA00085455D4506C697C0FF07E780A06E854542
:103AB000614597C0FF07E780E06DB240410109A072
:103AC0008280411106C60686B240AA8537150020BD
:103AD0001305C5F541016F10C035411106C60686B4
:103AE000B240AA85371500201305C5F541016F10B6
:103AF00060188280797122D426D24AD04ECE52CC20
:103B000056CA5AC85EC662C4BE8406D666C293F759
:103B10003800AA8A2E8B3289B68B3A8CC289468AA3
:103B200032848DE72684B30C964039A0DE86DA8590
:103B300013050002829A050433868C00E36834FF83
:103B4000014463E49900338499404A942694228581
:103B50003306944085E4137A2A0033042441631F1A
:103B60000A02B250225492540259F249624AD24A8D
:103B7000424BB24B224C924C45618280FD14B307FC
:103B80009C0003C50700DE86DA85829AC9B72A86BB
:103B9000DE86DA8513050002829A05043305890062
:103BA000E36734FF7DBF4683A248428E824E13FFF7
:103BB0002800124863160F0413FF1800630B080057
:103BC00063090F0063160E0093FFC80063830F00A4
:103BD0007D18930F00029302000301A86389F70187
:103BE000B303F700238053008507E3E9D7FFFD4FB8
:103BF0009302000363060F0063F4070163F4FF04FC
:103C000013FF080163020F0813FF084063130F043A
:103C1000638107046384D701639D0703938EF7FFD5
:103C200063880E02414FF9176308E303F687894E54
:103C30006312D3057D436365F3063303F700930EE8
:103C4000200635A0B303F7002380530085075DB736
:103C50008147C14EE31DD3FD13F308026313030430
:103C60007D43636FF3023303F700930E8007230055
:103C7000D30185077D436365F3023303F700930E99
:103C800000032300D30185077D43636BF3006302C8
:103C90000E023303F700130ED0022300C301850781
:103CA00091BD7D43E36EF3FE3303F700930E800571
:103CB0007DBF13F34800630703003303F700130EBF
:103CC000B002E1BF13F38800E30C03FC3303F700F9
:103CD000130E0002D9B7397106DE964E19E393FE32
:103CE000FEFE13F30E40630403006307070413FE94
:103CF0000E021303100663040E00130310043A8F20
:103D0000930F01010147A540130E63FF93030002C7
:103D1000B3720F0313F3F20F63EE500213030303A6
:103D20001373F30F23806F00050733530F0363658D
:103D30000F01850F631E7700064346C076C41AC282
:103D4000C2883E88BA871808B93DF2502161828046
:103D50001A8F7DBF7293E9B77571CAD8CED6D2D407
:103D6000DECEE6CAEAC8EEC63A8D86DEA2DCA6DA68
:103D7000D6D2DAD0E2CC2ACA46C75D8FCA4DFA4CF9
:103D80002E89B289368ABE8B19E393FCFCFE93F729
:103D90000C4099C3014C35C793F70C02130410066D
:103DA00099C3130410040410014C254B5914930AB1
:103DB00000024686EE866A85DE8542CE46CCEFC09E
:103DC0003F801375F50FE2487248636AAB0613052E
:103DD00005031375F50F2380A4004686EE866A85D9
:103DE000DE8542CE46CCEFC0AFC7E2487248050C34
:103DF00063E9BB0163947D0163651D018504631D57
:103E00005C03EA47524566C43EC2DA471810D286C0
:103E10003EC04E86E287CA857933F6506654D65442
:103E20004659B659265A965A065BF64B664CD64CFE
:103E3000464DB64D496182802A8DAE8B9DBF22953D
:103E400049BF5971E2C4E6C2EAC06EDE2A8CAE8C6C
:103E5000B28D368D3A86BE863A85BE85A6D2CECE46
:103E6000D2CCD6CA86D6A2D4CAD0DAC8DEC6C65943
:103E7000BA84BE8A428A46C8EFD06FDD0DE9B7A783
:103E8000001803A6875683A6C7562685D685EFD089
:103E9000CFE2634EA000B7A7001803A6075783A67A
:103EA00047572685D685EFD02FEC635A0502265456
:103EB000CED8C248B6500659F649464BB64B528842
:103EC0002687664A9654D687EA86D64A064D6E8677
:103ED000E685F25D964C6285264C656195A60146A5
:103EE00081462685D685EFD02FE826CA56846356AC
:103EF0000500370400803344540193F709403ECC59
:103F000091E3194A135544011375F57F130515C044
:103F1000EFE08FA2B7A7001803A6875783A6C7575D
:103F2000EFD06FEFB7A7001803A6075883A647582E
:103F3000EFC01F9DB7A700181317C400318303A655
:103F4000875883A6C758B707F03FD98F2A8BAE8B07
:103F50002685BE85EFD09FB0B7A7001803A60759E6
:103F600083A64759EFD02FEB2A86AE865A85DE8589
:103F7000EFC01F99EFE00F902A89EFE0EF9BB7A702
:103F8000001803A6875983A6C7592A8BAE8BEFD09A
:103F90008FE8B7A7001803A6075A83A6475AEFC0B1
:103FA0003F96EFE02F8DB7A7001803A6875A83A688
:103FB000C75A2ACCDE855A85EFD0EFE52A8B6245B9
:103FC000AE8BEFE06F97B7A7001803A6075B83A639
:103FD000475BEFD04FE42A86AE865A85DE85EFD068
:103FE000FFA72A86AE862AD02ED2EFD0CFE2025784
:103FF00092572A8B3A86BE863A85AE8BBE853AD4D6
:104000003ED6EFC0FF8FB7A6001803A6865B83A637
:10401000C65B2AD02ED25A85DE85EFC01FEF37A3AC
:1040200000180326035C8326435CEFC07F8D2A863D
:10403000AE865A85DE85EFC05FEDB7A6001803A6F1
:10404000865C83A6C65CEFC0BF8B2A86AE865A8587
:10405000DE85EFC09FEBB25722572A8BBE86B7A7EB
:10406000001803A5075DAE8B83A5475D3A86EFD0A8
:10407000FF9E2A86AE865A85DE85EFC07F889258DD
:1040800002582A86AE864285C685EFC01FE8B7A7CC
:10409000001803A6875D83A6C75DEFC07F86E24751
:1040A000014842869387F73F13974701BA86EFD0BE
:1040B0008FD62686A2862A8BAE8BEFD00FC037A371
:1040C0000018634DA0125ACC5ECE9307600C130B00
:1040D000390633BB670193D7B900858B110BB1C388
:1040E000B7A7001803A6075E83A6475E2685A285AC
:1040F000EFD0AFBC63420512B7A7001803A6875ED6
:1041000083A6C75E2685A285EFD00FC6635605102D
:1041100063524911330A2A417D1A93E90940014B40
:104120000149C24781486374FB00B388674193FB30
:10413000290063850B0063030B008148630C0900B1
:104140006246F246A285268546D0EFC01FDC825823
:104150002ACA2E84014681462685D68546CCEFD0D4
:10416000AFC0E24863550500B70700803D8C52465A
:10417000FD779387F77FB3F7F9003EC03287528807
:104180006E86A287EA86E68562855D282A866307B1
:104190000B0493F9090213055004639409001305F5
:1041A0005006EA86E68513041600029C1357F9416F
:1041B000B346270195477D1B22863EC23387E640E2
:1041C0005AC0814829489357F901EA86E6856285F5
:1041D00019362A863304B541639E0B04B650265423
:1041E00096540659F649664AD64A464BB64B264C73
:1041F000964C064DF25D3285656182800326035C34
:104200008326435C5A85DE85EFC03FD07D192ACCDA
:104210002ECE65BD014A11B7E3050AF093F70940B8
:10422000E38107F07D1AF5BDEA86E68513050002F5
:10423000029C0504C24733868D00E367F4FE79BF14
:104240001971DAD0DECEE2CC2AC02E8BB28B368C3E
:104250003A86BE863A85BE85A2DCA6DACAD8CED614
:10426000D2D486DED6D2E6CAEAC8EEC68A493A84F5
:10427000BE844289468AEFD08F9D05CD37A70018AE
:10428000CE8852888D471307874D66540245F650F5
:10429000D6544659B659265A965AD64C464DB64D1E
:1042A000E2865E86664CF64BDA85065B09616FF046
:1042B0007F84B7A7001803A6075783A64757228510
:1042C000A685EFD06FAA635A050037A70018CE88DD
:1042D000528891471307C74D4DBFB7A7001803A6D3
:1042E000875683A6C7562285A685EFD00F9D6353B8
:1042F000A00293F7490089CB37A700181307074D91
:104300009147CE88528851B737A700181307C74C7A
:104310008D47C5BFB7A7001803A6075F83A6475FF1
:104320002285A685EFD06F99634EA000B7A700182D
:1043300003A6875F83A6C75F2285A685EFD0CFA29D
:10434000635B0502228766544EC10245F650B6599A
:10435000965AD64C464DB64DD2884A88265A46596A
:10436000A687E286D654664C5E86DA85F64B065BF7
:1043700009616FF01FAD014681462285A685EFD009
:10438000AF9E635805102286A68601458145EFD071
:10439000EFEC85472A84AE843EC293F70940638CD4
:1043A000070E814CA547130700039306000263FA2A
:1043B0002701101066962300E600850C7D19E3980E
:1043C000DCFEA6852285EFD0FFCA37A700181307A9
:1043D000076093173900BA9703A847009C43AA8A3D
:1043E00042C63EC4EFD05FD52A86AE862285A6851A
:1043F000EFD0CFE62246B246B7AD0018EFD0AFA15E
:104400002ECA2AC8EFD05FCD2A8DEFD05FD94247A0
:10441000D2472A86AE863A85BE85EFD02FE403A721
:104420000D5A83A74D5A2ACC3A86BE862ECEEFD09F
:10443000CF886EC803A70D5A83A74D5A6248F24829
:10444000635DA004050D6A85EFD07FD52A86AE8610
:104450002245B245EFD04F916344A000850A014D3B
:10446000630C09049306000229472546639CDC0877
:1044700093F7390005476394E71463020A149247DF
:1044800081E793F7C90091C37D1AFD471307000325
:10449000D5A802C219B7194929B73A86BE864285FE
:1044A000C685EFD06F8CE34D05FA63050D00937759
:1044B0001D00DDD7050D6DB75685EFD0FFC72A86E5
:1044C000AE862285A685EFD06FD9C2472A8DAE8DE4
:1044D00003A4075A83A4475A2286A686EFD0CF8822
:1044E000635A05002286A6866A85EE85EFC0FFFC2A
:1044F0006356A00093F71A0091C3850A9306000241
:1045000029478DA81C10850CB3859701B377ED0260
:104510007D1993870703A38FF5FEB357ED026365FB
:10452000A60366991307000293060003E382ECF4E6
:1045300093871C00639C2C019800BA9C1307E0022F
:104540002380ECFEBE8C5DBF3E8D0DB71010B29C7B
:104550002380DC00BE8CD9BF1C10850C33869701EC
:10456000B3E7EA02B3CAEA0293870703A30FF6FE92
:10457000E3800AF0E392DCFEE5BD1410E6962380AA
:10458000E600850C63FD4C03E3F997FF0245CE88F6
:104590005288E6871810E2865E86DA85EFF08FD5BE
:1045A000F6506654D6544659B659265A965A065B62
:1045B000F64B664CD64C464DB64D09618280FD47A0
:1045C000E3E697FD924789CB9C00E6971307D0025C
:1045D0002380E7FE850C5DBF93F7490091C79C00DF
:1045E000E6971307B002EDB793F78900C5D39C0097
:1045F000E69713070002E9BF19C16F50802D828032
:104600005971A6D2CAD0CECED2CCE6C286D6A2D41A
:10461000D6CADAC8DEC6E2C4EAC06EDE2E8AB28925
:10462000B684BA8C2A8989E537490018130929AF5D
:10463000856A93870A8037AB00183ECEC16B93071B
:104640004B4E3ED09387FBFF814D3ED2294CFDA4BB
:104650009307500285046308F50013841D00CE867D
:104660006E86D285B9AA01461307B0029305D0021F
:1046700013050003130800029308300201A8638D9C
:10468000B7026391A70213661600B68483C70400BD
:10469000938614006385E702E363F7FE63840703F0
:1046A00063851703138707FD1377F70FA54563E8A5
:1046B000E506814AA54625A013662600F9B71366CC
:1046C0004600E1B713668600C9B71366060175BFD9
:1046D000B3888A03AE84938808FDB30A170103C721
:1046E000040093851400930707FD93F7F70FE3F198
:1046F000F6FE03C704009307E0026317F70E83C6B4
:104700001400A54593871400138706FD1377F70F50
:104710001366064063EAE50A014DA54515A813078F
:10472000A002814AE397E7FC83AA0C0093874C0020
:1047300063D60A0013662600B30A5041BE8CB684C5
:104740004DBF33038D03AA87130303FD338D66002A
:1047500083C6070013851700138706FD1377F70F2D
:10476000E3F1E5FE03C707009306C0069384170034
:10477000630AD70863EDE60693068006630DD70843
:104780009306A0066303D70ABE8403C504009307FB
:1047900080078504E3E3A7EC9307700563EAA708A5
:1047A00093075004630BF50A63E1A70A93075002CD
:1047B000E315F5EA13841D00CE866E86D2851305B7
:1047C00050020299A28D9DAA1307A002014DE39BFE
:1047D000E6F803AD0C0013874C0063530D00014D48
:1047E00093872400BA8CBDBFA687014DA5BF930651
:1047F00040076306D7009306A007E317D7F81366B0
:10480000061061B783C61700E39BE6FE1366063009
:10481000938427009DBF83C617006385E600136657
:104820000608A5B71366060CE5B713660620B1BFE8
:10483000930785FA93F7F70F13070002E36FF7E08A
:1048400002578A07BA979C438287930760046305DF
:10485000F51C93077004E312F5E09377F50D130749
:1048600070046396E700F2471375D50F5D8E9307CA
:1048700050046314F5001366060293877C00E19BE5
:104880009843938C8700DC43D68832C06A88CE86F2
:104890006E86D2854A85EFF0CFDA4DA29307800766
:1048A000630EF530930780056308F5309307F00633
:1048B0006308F530930720066306F53093079006EA
:1048C0003D9A29486307F500930740066303F50006
:1048D0004D9A9377064091C3799A13079006937780
:1048E00006206306E50013074006631CE50C63849D
:1048F00007089D0C93FC8CFF03A54C0083A70C00BC
:10490000C2889356F541B58F3387D740B3C5A6000B
:10491000B3B7E700B386D54013848C0032C656C4C3
:104920006AC202C01358F501B387F640CE866E8680
:10493000D2854A85EFF04FC2AA8DA28C03C5040030
:10494000E31805D06E8663E43D011386F9FFCE8639
:10495000D28501450299B650265496540659F64917
:10496000664AD64A464BB64B264C964C064D6E854B
:10497000F25D656182809377061013844C0085C7D1
:1049800083A70C0013D7F741B346F70032C256C0D5
:10499000EA88FD833387E640CE866E86D2854A85D7
:1049A000EFF06FB351BF1377060483A70C0001C764
:1049B00093F7F70FC1BF1377060869D7C207C187FE
:1049C000D1B78DC39D0C93FC8CFF03A70C0083A76C
:1049D0004C00C28813848C0032C656C46AC202C01E
:1049E0000148A9B79377061013844C0081CB03A725
:1049F0000C0032C256C0EA88814779BF937706041B
:104A000003A70C0081C71377F70FE5B79377060864
:104A1000EDD392577D8FF1BF1366060293877C001A
:104A2000E19B9843938C8700DC43D68832C06A8828
:104A3000CE866E86D2854A85EFF09F80AA8DFDBD19
:104A400013742600854B0DE8014D31A0CE86D2852A
:104A50001305000202993306BD01050DE3685DFFF1
:104A6000814763840A009387FAFFBE9D8947638468
:104A70000A0093871A00BE8B03C50C00CE866E8693
:104A8000D285138D4C00138B1D0002990DC45E84DA
:104A90005A8611A8CE86D28513050002930C160003
:104AA000029905046686E36754FF814663E47A0150
:104AB000B3867A41369BEA8CDA8D49B593874C00F0
:104AC0003ECC83AB0C00EA8763130D00FD573387A0
:104AD000FB00DE8783C6070099C26392E702937CDE
:104AE0000640338B774163850C0063736D016A8BDD
:104AF0001374260029E06E86330EBB4139A8850762
:104B0000D1BF1307160072D63AD4CE86D2851305CC
:104B1000000202992257325E3A863307CE00E362E2
:104B200057FF014763E46A0133876A4193071B001B
:104B3000BA9D330BF7006E8719A8368D130E170038
:104B400072D43A86CE86D2850299225E7287B306E7
:104B5000B741DE9603C5060019C5E3810CFE930636
:104B6000FDFFE31C0DFC630A04023A863304EB40AC
:104B700019A83AD4CE86D28513050002930C1600EC
:104B8000029922576686B306C400E3E456FF8146C5
:104B900063E46A01B3866A413697E24CBA8D79BB09
:104BA00013661602A14703A70C0013844C0032C2FF
:104BB0003EC0EA88414889B513660602414809BBF0
:104BC000214819B3094809B3411122C406C62A84F1
:104BD00003450400FD5509E92945EF40304CB2403A
:104BE0002244014541018280EF40504B0504CDB77E
:104BF00041111375F50F06C6EF40B04DB2400145A7
:104C000041018280397136D6AA86374500182ED2E6
:104C100032D43AD82C0058107D561305855F06CE45
:104C20003EDA42DC46DE3AC6EFF09F9DF24021615B
:104C30008280011122CC2A8488412EC606CE6924A6
:104C4000050512051307850022951C49B2452297D8
:104C500091C7944381C6904163EBC6000CC7D8C589
:104C60009CC591C3CCC7F2406244056182803E87F7
:104C70009C47F9BF63830508938785FFD04303A84A
:104C800085FFBE8806060582B3860701D0C303A34D
:104C900046003687634C030203AEC60083AE86002F
:104CA00003A306002324DE0133876600944699C2DD
:104CB00023A6C6011A9803234700B706008023AC39
:104CC00005FFB3F66600B3E6060154C3918FD443E3
:104CD00063C30602D047944714C691C2D0C694431A
:104CE00003A685FF4C43BE883696B7060080ED8E3E
:104CF00090C3D18E54C3C6852DBF828054459387FF
:104D0000F5002E96C19B419A3307F640BA9654C5DA
:104D10001CC9A14637080080411723A2070198C784
:104D200094C3D4C793858700930786FF5CC9232C5F
:104D3000D6FE33670701D8C3EDBD411122C426C298
:104D40004AC006C62A8423260500AE8432898145DE
:104D5000130600136105EFD02FDE930784021307BB
:104D60008414938607FF23ACF7FED4C7C107E39AE8
:104D7000E7FE22852244B2404A86A6850249924433
:104D80004101ADBFB7550020B7070320138685CC7E
:104D900093870700371500203386C740938585CC5D
:104DA0001305C5F559BF184903234501014681473D
:104DB00081480148636D67005845A10723A215018A
:104DC00098C123A40501DCC590C901458280032E4A
:104DD0004700144363550E00B6973697E1BF850828
:104DE0003696E37CD8FE3688CDBF79716C0022D42C
:104DF00006D637140020453F8327440AE2451304B2
:104E0000440A63D3B702B7070320375700209387BC
:104E10000780130787CC0CC0998F63E7F50037A58F
:104E2000001813050565F93B0840B250225445614E
:104E30008280411126C206C622C44AC08144ADC543
:104E4000DD0513F405FFB70740002A89494563745F
:104E5000F40022859528930715009207CA97844B82
:104E6000A9CC9C40984463E88704D44498C611C3F5
:104E700054C7B38687403D476370D702B38584002B
:104E8000C0C1A697D0433707008094C1718F80C0FE
:104E9000558FD8C34A85713BDC4037070080D98FD6
:104EA000DCC0A1044A859137B240224402492685DC
:104EB000924441018280BA8465B737A50018A28563
:104EC000130545678133F9BFB7074000637CF500E0
:104ED00093574500054701456363F7008280050548
:104EE0008583DDBF49458280639905007D558280B9
:104EF0007D55B2502254456182806DD9797122D49A
:104F000006D62E84EF1040468A85EF10004D6DF1D5
:104F1000824742471CC0924718C85CC0A2471CC4C5
:104F2000D2475CC8E2471CCCE9B7011106CE2EC6B9
:104F300032C436C2EF10404392462246B245F24098
:104F400005616F10004E011106CE2EC632C436C266
:104F5000EF10804192462246B245F24005616F1043
:104F6000204E011106CE2EC632C4EF10E03F22467D
:104F7000B245F24005616F10804E82808280B7A5F5
:104F8000001837A500184111938545691305C569B7
:104F900006C68D3937A60018B7A5001837A5001822
:104FA0001306C66A9385856B1305456CA1390145C7
:104FB000EFE04FBBAA8537A500181305456D993161
:104FC000EF10200C6344A00237A500181305856E6E
:104FD000EFF09FBF37A5001813054571EFF0DFBE56
:104FE000EF403006B240014541018280413F952AA1
:104FF00001C937A5001813050570EFF0FFBC01A02B
:10500000AD3FEF40C071F9B7014582805D71A6C226
:10501000AA8437A500181305457286C6CAC0A2C463
:105020004EDE52DCEFF05FBA26866C00280002C626
:10503000EF00105D224963420502B7A9001822451E
:105040000C08EF00900D6354050437A500181305F4
:105050000576EFF07FB77D5409A82A8437A500189C
:10506000CA8513050574EFF0FFB937B500181305AD
:105070004582EFF07FB5F957630CF40C2644B64037
:105080000649F259625A26859644616125AD0808A1
:10509000A53F39E10808EF10E0182A8AEF106016E2
:1050A0002A845285EF1020211C48544C33F7D70234
:1050B00011CB37A500183E860C0813054577EFF095
:1050C0007FB451BF025663FEC70037A50018BE86E5
:1050D0000C081305057CE5B70C081385497FEFF034
:1050E0007FB22245EF0070012AC431F94AC437A9C2
:1050F000001822450C08EF005002E34805F40808A8
:1051000021370DE5A24632460C087D55EF00502DA3
:105110002A846352050237B5001813050581EFF0A4
:10512000BFAAF157E303F4F4795481B70C081305CF
:10513000497FEFF03FAD2245EF00207C2AC402C634
:105140004DF937B500181305C583EFF0FFA73DB73C
:10515000B640264496440649F259625A795561612F
:10516000828037B500184111130585854AC006C6EF
:1051700022C426C2EF10000B2A89EF10800819ED17
:1051800037B5001813050586EFF01FA4FD54B24093
:10519000224402492685924441018280AA852A84BC
:1051A0004A85A52BAA8401C937B50018130585883F
:1051B000EFF09FA1E9BF2285E92BFD57630DF500B4
:1051C0002285A93519C537B5001813050581EFF0FB
:1051D000BF9FEF4000674A85EF10E00D4DBF79712A
:1051E00052CC2A8A2E8506D622D426D24AD04ECE3A
:1051F0002E89B289EF108079B304A9004A85EF1097
:10520000E0789C40330445013EC6EF10D0174E862F
:10521000D2855105B9330DC137B500181305058A7C
:10522000EFF09F9A7D54B250228522549254025935
:10523000F249624A45618280EF10F0149386C9FFFB
:105240001306490093054A005105EFF0DFCF11C561
:1052500037B500181305058BE1B7EF10D012A28502
:10526000914670005105EFF01FCE2A8411C537B565
:1052700000181305458C6DB74E85EFE09F84AA8416
:105280005DD1EF105010CE862686D2855105EFF005
:10529000DFC94E86CA852685EFC01FF92A8419C941
:1052A00037B500181305858DEFF01F922685EFE0C6
:1052B000DF828DBF2685EFE05F82B5B731714ED7B3
:1052C000AA8937B500181305459122DD4AD956D36E
:1052D00006DF26DB52D55AD136C6AE8A3284EFF0CD
:1052E0007F92B24685479CC203A9C9004A85EFE078
:1052F0004FFD1DE137B5001813058593EFF0DF8CE6
:105300007D54FA5022856A54DA544A59BA592A5AB5
:105310009A5A0A5B296182804A868145AA84EFD025
:10532000AF8183A54900CA86268613854901EFF01F
:10533000DFBF01C937B500181305C58FEFF0DF884F
:1053400069A06C185685EF10E0652A8A69E918484B
:10535000B6476318F7045848C6476314F704184C57
:10536000D6476310F704584CE647631CF70203471F
:1053700004028347C1056316F702034714028347FB
:10538000D1056310F7021C44964641677D1733F63A
:10539000E700758F6317E600B58F37070F00F98FA9
:1053A000BDCF03DB440113898405635A6A07214694
:1053B000D6854A85EFD0AF896317050E130A84009E
:1053C0002C085285EFF05FB209C52685EFE0EFF0BB
:1053D00005BF1146D28513058900EFC03FEA834718
:1053E00004025848504C2308F90083471402E6454C
:1053F00037B50018A308F9001C48232EC90013056F
:1054000005951D8F25832319E9004257998FA583A0
:10541000232AF9001C4C232CF900EFF0AFFE0C08F6
:105420008810EF00904142479307000413848401E1
:1054300063F5E7003EC8A30F010837B500188C10CC
:1054400013058599EFF00FFC42468C102285EFC0C2
:10545000FFE283D54401500826859605938585058E
:105460003384B400EF1020318357410103A6C900F3
:1054700003A5890013978700C207C183A183D98F31
:1054800052472311F400A6859356870141832300D8
:10549000D400A300E400A1332A8411C937B5001851
:1054A0001305459B61BD13090902050AFDBD26854B
:1054B000EFE0AFE2B9B5411126C2AA84484506C65D
:1054C00022C4EFE00FE009E937B500181305059D88
:1054D000EFF08FEFFD54B9A82A8437B500181305F3
:1054E000459EEFF06FEED04481452285EFC0DFE4AA
:1054F000EF106069D4448C4422865105EFF0FFA27E
:1055000019C937B50018130505A0EFF0EFEB228598
:10551000EFE0AFDCC1B7D044C840A285EFF03FCC8C
:10552000AA8411C537B500181305459BF9BF22851C
:10553000EFE0AFDAB24022442685924441018280F6
:105540005D7186C6A2C4A6C2CAC04EDE52DC56DA5F
:105550005AD85ED662D466D2637AD80037B50018BE
:10556000130505A1EFF04FE6FD541DA08549AA8A59
:10557000639E3703AA8537B50018130585A2EFF09F
:105580006FE837B500181305C5A4EFF0EFE3F15449
:10559000B64026440649F259625AD25A425BB25B7F
:1055A000225C925C26859644616182802E8A4685C3
:1055B0008A85B28B368B3A84C2844689EFF0DF92BB
:1055C00009C937B500181305C5A6EFF0EFDF014490
:1055D0005DA037B50018D685130545A8EFF08FE21A
:1055E00037B50018130585AAEFF00FDEE2452686D1
:1055F0004A85B305BA40EFF0DF96AA8411C537B5E6
:105600000018130585ACD1B741E00565EFE06FCB1D
:105610002A84DA89056C05E937B500181305059D5C
:1056200091B7856622864A85EFF03F9029E5E245ED
:1056300085662286B305BA40E6954A85EFF0BF90AD
:105640001DE9B3898941E245B30C3B41B385BB40B9
:10565000E695E3683CFDCE8622864A85EFF0FF8C16
:1056600019E9E245CE862286B305BA40E6954A8519
:10567000EFF07F8D1DC137B50018D685130585B5B0
:10568000EFF04FD8FD540DA06316340337B5001862
:10569000130505AEEFF04FD3014437B50018D6859A
:1056A000130545B3EFF00FD6E30404EE2285EFE0D7
:1056B000CFC2F9BD37B50018A285130585B0EFF04C
:1056C0006FD431B701113717002026CA8324870A07
:1056D000371700200327070B0D46B71700203306A6
:1056E000E60283A7470B22CC06CE2A8463F3C700C9
:1056F0003E8637B50018A6851305C5B732C6EFF04C
:105700006FD00C441305C40262443246F240B385A4
:10571000B440D24405616FF0DF84B7270020D44540
:1057200023ACB70A9C452E8737160020B697B716CC
:10573000002023A4F60AD44D184B4111939516006E
:10574000AE972326F60AB71700203716002023A8A5
:10575000D70A1306860BB7170020856606C622C433
:1057600023AAE70AEF00503609CD37B50018130514
:10577000C5BAEFF06FC57D54B24022852244410185
:1057800082802A84EF102040B727002023AEA70A8A
:10579000E5B7130101DC232A9122B71400201387F7
:1057A000840B1443B7574745232E1122232C812203
:1057B0002328212323263123232441232322512359
:1057C00023206123232E7121232C8121938797D4B9
:1057D000639CF610834657001547FD57636DD7024B
:1057E000630B0502B717002083A5870A1C45130B1E
:1057F000C5022A849D8D9146100A5A85EFF0EFF27A
:10580000FD5711E903270111B7B747749387A7BB69
:10581000631BF70285478320C1230324812383244C
:105820004123032901238329C122032A8122832AB8
:105830004122032B0122832BC121032C81213E8590
:105840001301012482809384840B83C54400B7171D
:10585000002083A9C70AB5E903A98400338A290176
:10586000930A0A1083CB640003CC74005E85EF00BA
:105870007045AA846285EF00D0460C44AA86100ABF
:10588000B305BA405A85EFF04FEA39ED0C44A686CD
:105890001008B385BA405A85EFF02FE931E54A8602
:1058A000CE8522888147780014095E85EF00F05D7F
:1058B00026860C090808EFC03F970DC937B50018B8
:1058C000130545BEEFF04FB005A085476398F5007E
:1058D00003A98400FD5A338A290169B737B5001836
:1058E0001305C5BCEFF00FB2FD5735B737B500183B
:1058F000130545C0EFF04FAD31BFB7170020138738
:10590000870B8347C700B307F540998F3D47637402
:10591000F7004115828001458280411122C42E8406
:1059200026C22146AA84AA85228506C6EFC0DFBB0F
:10593000B7170020984483A7C70AB716002093869C
:10594000860BBA975CC483C7C40003C65600230CF9
:10595000F40083C7C600B697B387F44091838507E8
:10596000639AC7029C46998F1CC87D5563CF070078
:10597000EF102050A30EA400230E04005C4C370748
:10598000F1FF7D17F98F5CCC0145B240224492446F
:10599000410182809C4CC1BF397122DC1304C501D6
:1059A00026DA2EC6AA840C08228506DEEFF0CFD3B5
:1059B00019EDCC44A2573246930600039D8D2285F3
:1059C000EFF0AFD6F2506254D254216182807D55FF
:1059D000D5BF797122D426D24AD04ECE52CC62C4E1
:1059E00066C206D656CA5AC85EC6001837190020C5
:1059F000B72900208326090BAA8403A5890BB717B2
:105A0000002003AA870A2E8C9387F6000C45C19BC1
:105A10003301F140B28CB305BA400A861305C502C2
:105A2000EFF0AFD009C937B50018130585C2EFF004
:105A3000AF99FD5B1DA085478A8A1309090B9389DD
:105A4000890B6398F40E894763F9970337B50018FB
:105A5000130505C4EFF04F97F95B130104FDB25035
:105A60005E85225492540259F249624AD24A424B0C
:105A7000B24B224C924C456182800247B7B74774C3
:105A80009387A7BBF95B631CF706371B0020130B3A
:105A90008B0B8344CB0037B50018E285B3049C40E0
:105AA000B384644191802686130585C5EFF08F95F8
:105AB0008347CB0003475B00B307FC40B3876741D4
:105AC000918363E9E70037B50018130585C7EFF048
:105AD000AF8F61B7639B0C0063646C01330C6C4146
