:020000041801E1
:1070000091A0010043534B59A03004000000000040
:107010000000000000000000000000000000000070
:107020000000000000000000000000000000000060
:107030000000000000000000000000000000000050
:10704000447001187370043097A1FEEF938141AD35
:10705000170500001305053713653500731055300B
:107060000965732005301795FEEF1305A5F9731018
:107070007530370510007310557C17A1FE071301FA
:1070800061F8EF90023F130500006304A000029531
:1070900019A0EFA0415501A00000732500307370C6
:1070A000043082807310053082807325003021897E
:1070B0008280B71280E0B10203830200854333630C
:1070C0007300238062008280B71280E0B1020383E4
:1070D000020085433363730023806200828095A0A1
:1070E000130141F806C00EC212C416C61AC81ECA41
:1070F00022CC26CE2AD02ED232D436D63AD83EDA78
:1071000042DC46DECAC0CEC2D2C4D6C6DAC8DECAA7
:10711000E2CCE6CEEAD0EED2F2D4F6D6FAD8FEDA57
:10712000F322103496DC17D5FEEF1305E5198345DD
:10713000050085ED97C5FEEF938505B98C4123A029
:10714000250017D5FEEF1305650497C5FEEF93855F
:10715000A5B7104190C1032106008962938202887D
:1071600073A00230E6527390123482409241224260
:10717000B2424243D2436244F244025592552256EF
:10718000B2564257D2576258F25806499649264A93
:10719000B64A464BD64B664CF64C065D965D265E6F
:1071A000B65E465FD65F1301C10773002030000052
:1071B00000000000000000000000000000000000CF
:1071C000611116C01AC297A2FEEF9382626603A3F2
:1071D0000200050323A06200854263CC6200824264
:1071E000124321017310013417A1FE07130181E13D
:1071F00021A0824212432101130181FB16C21AC44D
:10720000F3221034732320349AC096C27360043082
:1072100006C01EC62AC82ECA32CC36CE3AD03ED2BE
:1072200042D446D672D876DA7ADC7EDE1373F33F28
:107230000A0397A2FEEF9382422582927370043074
:10724000864513F5F53F37E600E0130606102A964B
:107250008306060005471347F7FFB377D7002300DF
:10726000F60097A2FEEF9382A25C03A302007D13B7
:1072700023A062006340600489629382028873A045
:1072800002307390253496427390123482409242B9
:107290002243B2434245D2456246F24602579257D4
:1072A0002258B258425ED25E625FF25F73210034B0
:1072B0007300203089629382028873A00230739039
:1072C0002534964273901234824092422243B24354
:1072D0004245D2456246F246025792572258B2586A
:1072E000425ED25E625FF25F130181047300203060
:1072F000711116C0F322203463C4020A110197A24F
:10730000FEEF9382A2529382C2F723A0120023A21F
:10731000220023A4320023A6420023AA620023AC49
:10732000720023AE820023A0920223A2A20223A411
:10733000B20223A6C20223A8D20223AAE20223ACED
:10734000F20223AE020323A0120523A2220523A4E6
:10735000320523A6420523A8520523AA620523ACC1
:10736000720523AE820523A0920723A2A20723A4BD
:10737000B20723A6C20723A8D20723AAE20723AC99
:10738000F2077325103423AEA2067325003023A024
:10739000A20816858322C1FF2A8116C8EF90C25029
:1073A000824211016FF0DFE11300000013000000C2
:1073B0001300000013000000130000001300000081
:1073C00005BF0000000000000000000000000000F9
:1073D000000000000000630D060093070002918F7B
:1073E0006349F000130506FE014733D5A500BA85B1
:1073F000828033D7C5003355C500B395F5004D8D58
:10740000FDB7630D060093070002918F6349F000FA
:10741000930506FE0147B315B5003A858280331700
:10742000C500B395C5003355F500C98DFDB7C167DB
:107430006376F5029307F00FB3B7A7008E07130723
:1074400000021D8F3355F5009797030093878782BD
:107450003E95034505003305A740828037070001AC
:10746000C147E36EE5FCE147D9BFB307A0407D8D7E
:10747000C1676373F5029307F00FB3B7A7008E07D8
:107480003355F500178703001307C77E3A95034568
:107490000500FD173E95828037070001C147E36173
:1074A000E5FEE147F1BFAA8E014863DA0500B33774
:1074B000A000B305B0409D8DB30EA0407D5863DBA6
:1074C0000600B337C000B306D0401348F8FF9D8EC6
:1074D0003306C040B2883687768E2E8563930622A7
:1074E000978603009386067963F1C50CC1676377BD
:1074F000F60A9307F00FB3B7C7008E073357F600AD
:10750000BA9683C60600B697930600023387F64004
:10751000638CF600B395E500B3D7FE00B318E60020
:1075200033E5B700339EEE0013D30801B35665026E
:1075300093950801C18193570E0133776502368612
:107540003385D5024207D98F63FCA700C6971386FF
:10755000F6FF63E7170163F5A7001386E6FFC697FA
:10756000898F33F76702420E135E0E01B3D76702AD
:107570004207336EC701B386F5023E87637BDE00A8
:10758000469E1387F7FF63661E016374DE00138750
:10759000E7FF13150601598D01435DA83707000168
:1075A000C147E36DE6F4E14791BF01E68548B3D8F2
:1075B000E802C16763F9F80A9307F00F63F3170154
:1075C0002147B3D7E800BE9683C7060093060002A2
:1075D000BA973387F640639FF608B3851541054394
:1075E00013D5080113960801418213570E01B3D732
:1075F000A502B3F6A502B305F602C206558FBE86F4
:10760000637CB70046979386F7FF6367170163753E
:10761000B7009386E7FF46970D8FB377A702420E18
:10762000135E0E013357A702C20733EEC7013306BC
:10763000E602BA87637BCE00469E9307F7FF636638
:107640001E016374CE009307E7FF139506015D8D5D
:107650009A8563090800B337A000B30560409D8D8B
:107660003305A0408280B70700014147E3EBF8F4FF
:10767000614781BFB398E80033D5F500339EEE0033
:10768000B395E500B3D7FE0093DE080133E6B700FB
:10769000B357D50393950801C1813377D5031355AB
:1076A00006013E83B386F5024207498F637CD7000B
:1076B00046971383F7FF636717016375D70013833A
:1076C000E7FF4697B306D74033F7D6034206418219
:1076D000B3D6D6034207B387D502B365C700368752
:1076E00063FCF500C6951387F6FF63E7150163F5A4
:1076F000F5001387E6FFC69542039D8D3363E300D3
:10770000C5B563E0D514C16763FFF6021307F00F38
:10771000B337D7008E0733D5F6001787030013075A
:1077200067552A97034707003E9793070002338364
:10773000E7406391E7020545E3ECB6F033B5CE00D0
:107740001345150031B737070001C147E3E5E6FCF3
:10775000E147D1B7B357E600B3966600DD8E33D567
:10776000E500B397650033D7EE0013DF0601B3657C
:10777000F7003377E5039398060193D8080193D770
:107780000501331666003355E5034207D98FB38FE1
:10779000A8022A8E63FCF701B697130EF5FF63E784
:1077A000D70063F5F701130EE5FFB697B387F741EE
:1077B00033F7E703C205C181B3D7E70342074D8F13
:1077C000B388F802BE85637C170136979385F7FF6F
:1077D0006367D700637517019385E7FF3697131525
:1077E0000E01416F4D8D9306FFFF93550501330741
:1077F0001741B378D500F18E4182338ED802B3861B
:10780000D50293570E01B388C802B698C697B385C0
:10781000C50263F3D700FA9593D60701B695636066
:10782000B702E31BB7D641677D17F98FC207337ED6
:10783000EE00B39E6E00F2970143E3FBFEE07D1580
:10784000A1BB0143014529B52A8F014863DA050030
:10785000B337A000B305B0409D8D330FA0407D58D5
:1078600063D90600B337C000B306D0409D8E3306FF
:10787000C040B288B6877A852E87639D061C97869E
:1078800003009386263F63FFC50A41636375660A5A
:107890001303F00F6373C300A1473353F6009A96A6
:1078A00083C60600BE96930700023383D740638CDD
:1078B000D700B3956500B356DF00B318660033E711
:1078C000B60033156F0013DE0801B355C7031396D6
:1078D0000801418293570501B376C703B305B60289
:1078E000C206D58F63F8B700C69763E5170163F347
:1078F000B700C6978D8F33F7C70342054181B3D7D1
:10790000C7034207598DB307F6026378F500469521
:10791000636515016373F50046951D8D335565004C
:10792000814563090800B337A000B305B0409D8DC1
:107930003305A040828037030001C147E36F66F43E
:10794000E147A1BF01E68548B3D8F802416763F279
:10795000E8081307F00F63731701A14733D7F80046
:10796000BA9683C60600BE96930700023383D740BB
:107970006398D706B385154193D60801139708017C
:10798000418313560501B3F7D502B3D5D502C2071B
:10799000D18FB305B70263F8B700C69763E5170147
:1079A00063F3B700C697B385B740B3F7D502420576
:1079B0004181B3D5D502C2075D8DB305B7026378A7
:1079C000B5004695636515016373B50046950D8D49
:1079D000B1B737070001C147E3E2E8F8E147BDBFAF
:1079E000B398680033D7D50013D60801B377C70220
:1079F000B3956500B356DF00CD8E93950801C18124
:107A000013DE060133156F003357C702C207B3E711
:107A1000C7013387E50263F8E700C69763E51701FE
:107A200063F3E700C6973387E740B377C702C20620
:107A3000C1823357C702C2073387E502B3E5D700D7
:107A400063F8E500C69563E5150163F3E500C695A7
:107A5000998D1DB7E3E7D5ECC16763F4F604130312
:107A6000F00FB337D3008E0733D3F60097880300A7
:107A7000938848209A9803C308003E939307000216
:107A8000B38867406396670263E4B6006369CF001A
:107A90003305CF40958D3337AF003387E540BA8546
:107AA00049B5B7080001C147E3E016FDE1476DBFE6
:107AB000B3576600B3961601DD8E33DE6500B3570B
:107AC0006F0033151F0113DF0601B31E1601337655
:107AD000EE03B3951501CD8F93950601C18113D7A0
:107AE0000701335EEE034206518FB38FC5037286E2
:107AF000637CF70136971306FEFF6367D700637553
:107B0000F7011306EEFF36973307F741337EE7039D
:107B1000C207C1833357E703420E336EFE00B385BD
:107B2000E502BA87637CBE00369E9307F7FF636762
:107B3000DE006375BE009307E7FF369E4206C16F05
:107B40005D8EB305BE40138EFFFF337FC60113D792
:107B50000E01418233FECE01B307CF03330EC603BD
:107B6000330FEF023306E602729F13D707017A97AD
:107B70006373C7017E96135E07017296416E7D1E88
:107B80003377C7014207B3F7C701BA9763E6C50069
:107B9000639BC5006379F500B38ED741B3B7D701B6
:107BA000B6971D8EF687B307F5403335F500918DF6
:107BB000898D3393650033D517013365A300B3D5A1
:107BC000150185B3AA88AE873288368546836396C9
:107BD0000620978603009386E60963FFC50A41677E
:107BE0006375E60A1307F00F3337C7000E073355E6
:107BF000E600AA9683C60600130500023697B30670
:107C0000E540630BE500B395D70033D7E8003318A0
:107C1000D600D98D3393D80093580801B3D61503F5
:107C20001316080141829357030133F71503368574
:107C3000B305D6024207D98F63FCB700C2971385FC
:107C4000F6FF63E7070163F5B7001385E6FFC29708
:107C50008D8F33F71703420313530301B3D7170371
:107C6000420733636700B306F6023E86637BD300A8
:107C700042931386F7FF636603016374D300138690
:107C8000E7FF4205518D81455DA837050001414759
:107C9000E36FA6F46147A1BF01E605473358C70269
:107CA0004167637FE8081307F00F637307012145FD
:107CB0003357A800BA9603C70600130600022A9796
:107CC000B306E6406315E608B38707418545935838
:107CD000080113160801418213570301B3F6170375
:107CE000B3D71703C206558F330EF6023E85637C69
:107CF000C70142971385F7FF636707016375C701E3
:107D00001385E7FF42973307C741B3771703420351
:107D10001353030133571703C20733E36700B30656
:107D2000E6023A86637BD30042931306F7FF63664D
:107D300003016374D3001306E7FF4205518D82806F
:107D4000370700014145E365E8F6614595B733180B
:107D5000D80033D5E7003393D800B397D70033D793
:107D6000E800935808013366F7003377150393173B
:107D70000801C183935506013355150342074D8F02
:107D8000B386A702AA85637CD70042979305F5FFC7
:107D9000636707016375D7009305E5FF4297B30654
:107DA000D74033F7160342064182B3D61603420783
:107DB0003385D702B367C700368763FCA700C29735
:107DC0001387F6FF63E7070163F5A7001387E6FF54
:107DD000C297C205898FD98DDDBD63E2D514416795
:107DE00063FFE6021307F00FB335D7008E0533D5D6
:107DF000B600178703001307E7E72A970347070032
:107E0000130500022E97B305E5406311E502054511
:107E1000E3E7F6F233B5C800134515000DB7370791
:107E20000001C145E3E5E6FCE145D1B73358E60082
:107E3000B396B6003368D80033D3E700935E0801E9
:107E4000B376D303B397B70033D7E800331EB60039
:107E50003366F70093170801C183135706013353A4
:107E6000D303C206558F338F67021A85637CE701FF
:107E700042971305F3FF636707016375E701130575
:107E8000E3FF42973307E741B376D7033357D7036E
:107E9000C2063383E70293170601C183D58F3A8662
:107EA00063FC6700C2971306F7FF63E7070163F5FA
:107EB00067001306E7FFC2974205C16E518D938696
:107EC000FEFF13560E0113580501B3876740337345
:107ED000D500B376DE00330ED302B306D8021357B3
:107EE0000E013303C30236931A973308C802637333
:107EF000D700769893560701369863E00703E3941A
:107F000007D9C167FD177D8F4207337EFE00B39806
:107F1000B80072978145E3F4E8E27D15ADB3814581
:107F2000014531BD2A833288B6872E876395061CAA
:107F300097860300938606D463F6C50AC168637CFE
:107F400016099308F00F63F3C800A147B358F60071
:107F5000C69683C60600B69793060002B388F6401D
:107F6000638CF600B3951501B357F300331816016F
:107F700033E7B7003315130193550801B377B70200
:107F8000131608014182935605013357B702C20701
:107F9000DD8E3307E60263F8E600C29663E506016C
:107FA00063F3E600C296998EB3F7B60242054181AB
:107FB000B3D6B602C2075D8DB306D6026378D5008C
:107FC0004295636505016373D5004295158D335560
:107FD000150181458280B7080001C147E36816F7A3
:107FE000E147ADB701E605473358C7024167637300
:107FF000E8081307F00F63730701A1473357F80030
:10800000BA9603C606003E9693070002B388C7409F
:108010006399C706B3850541935608019317080174
:10802000C1831356050133F7D502B3D5D5024207F4
:10803000518FB385B7026378B70042976365070134
:108040006373B7004297B305B74033F7D5024205D3
:108050004181B3D5D502B385B702931707015D8D72
:108060006378B5004295636505016373B500429579
:108070000D8DB1BF37070001C147E361E8F8E14763
:10808000B5BF33181801B3D6C5009357080133F7AD
:10809000F602B39515013356C3004D8E93150801B2
:1080A000C1813315130113530601B3D6F6024207FB
:1080B00033676700B386D5026378D700429763655C
:1080C00007016373D7004297B306D74033F7F60230
:1080D00042064182B3D6F6024207B386D502B365A3
:1080E000C70063F8D500C29563E5050163F3D500C9
:1080F000C295958D15B7E3EFD5ECC16763F4F6042F
:108100009308F00FB3B7D8008E07B3D8F6001788DE
:108110000300130828B6469883480800BE989307C2
:108120000002338817416396170363E4B60063695E
:10813000C3003305C340958D3337A3003387E54033
:10814000BA8549BD37080001C147E3E006FDE147B4
:108150006DBFB3571601B396060133EED70033D780
:108160001501135F0E01B31E06013376E703B395C5
:108170000501B3571301CD8F93150E01C18133153E
:10818000030193D607013357E7034206D18E3383A9
:10819000E5023A8663FC6600F2961306F7FF63E792
:1081A000C60163F566001306E7FFF296B3866640E4
:1081B00033F3E603B3D6E60342033387D502939540
:1081C0000701C181B365B300B68763FCE500F29592
:1081D0009387F6FF63E7C50163F5E5009387E6FF44
:1081E000F2954206416F5D8E9306FFFF3373D60012
:1081F000998D418213D70E01B3F6DE00B307D30287
:10820000B306D6023303E3023306E602369313D7EE
:1082100007011A976373D7007A9693560701B296AF
:1082200041667D16718F4207F18FBA9763E6D500DC
:10823000639BD5006379F5003386D741B3B7C70098
:10824000F2979D8EB287B307F5403335F500958DD3
:10825000898DB398150133D5070133E5A800B3D54F
:1082600005018DBB370810007D180111B377B800E8
:1082700013D745013378D80013D3460122CC8E079B
:108280001374F77F1357D5010E0826CAD98F93D4DC
:10829000F5011357D6011373F37F06CE4AC84EC6B5
:1082A000FD8233670701931535000E0633086440DD
:1082B0006398D4226353000F63180302B366C700A8
:1082C000638306581305F8FF09E92E963335B60087
:1082D000BA97AA97B2850544B9A89306F07F631DA3
:1082E000D8001304F07F4DA29306F07F630ED418DC
:1082F000B7068000558F42859306800363CBA6089E
:10830000FD4663C2A606130800023308A840B31650
:108310000701B358A60033160601B3E6160133363B
:10832000C000558E3357A7002E963335B6003E97C2
:10833000B307A700B285370780007D8F6306071457
:1083400005041307F07F630DE448370780FF7D17AE
:10835000F98F13F5150013D71500598D9395F70173
:10836000C98D858315A2930605FE93080002B356B6
:10837000D700014863081501130800043305A8401D
:108380003318A7003366C8003336C000558E014746
:1083900061BF598E3336C000DDBF630B080A330559
:1083A00083400DE4B3E6B700638306429306F5FF0E
:1083B00099E6B295BA9733B6C500B29729BF1308AC
:1083C000F07F631D0501BA87B28521BF9306F07F58
:1083D000E30BD3FEB7068000D58FAA861305800372
:1083E0006343D5067D45634BD5021308000233086D
:1083F000D84033950701B3D8D500B395050133654F
:108400001501B335B0004D8DB3D7D700B305C50006
:10841000BA9733B6C500B2971A8431BF138506FEEA
:108420009308000233D8A70001456387160113059E
:108430000004158D3395A7004D8D3335A0003365AD
:10844000A8008147E1B733E5B7003335A000D5BFB9
:108450009306140013F5E67F3DE1B3E6B70029E487
:10846000638B0636B366C70085C22E96BA9733353E
:10847000B600AA97370780007D8FB28511C73707EE
:1084800080FF7D17F98F054413F77500630C0734DF
:1084900013F7F50091466307D7341387450033354A
:1084A000B700AA97BA853DAE99DE598EE30B06E276
:1084B0008144B707400081451304F07F25A61305CA
:1084C000F07F638DA6302E963335B600BA97AA9703
:1084D0001395F7010582B365C500858336846DB7B2
:1084E0006356000D63110308B366C700638D06343D
:1084F0001305F8FF11E93386C54033B5C500998FE0
:10850000898FB2850544B1A09306F07FE30BD8DCD8
:108510009306800363C8A608FD4663CFA60413082C
:1085200000023308A840B3160701B358A60033165B
:108530000601B3E616013336C000558E3357A70047
:108540003386C54033B5C5003387E740B307A7403E
:10855000B2853709800033F727011DD77D1933F91C
:108560002701AE895DAA9306F07FE30FD4F0B7062A
:108570008000558F428569BF930605FE930800026F
:10858000B356D700014863081501130800043305EA
:10859000A8403318A7003366C8003336C000558E94
:1085A000014779BF598E3336C000DDBF6305080C23
:1085B000330583401DE833E8B70063080828130833
:1085C000F5FF631B0800B305B640B307F740333629
:1085D000B600918FB6843DB79308F07F6310150302
:1085E000BA87B2851304F07F7DA01308F07FE309FA
:1085F00003FF37088000B3E707012A8813058003CB
:10860000634605077D45634D050393080002B38863
:1086100008413395170133DE0501B3951501336524
:10862000C501B335B0004D8DB3D70701B305A640E2
:10863000B307F7403336B600918F1A84B68411BF62
:10864000130508FE130E0002B3D8A7000145630806
:10865000C80113050004330505413395A7004D8D6E
:108660003335A00033E5A8008147C9B733E5B7002B
:108670003335A000D5BF130514001375E57F25E938
:1086800033E8B7003365C70021E8631808006302C8
:10869000051CBA87B285B684C5BBE30705DE3388FF
:1086A000C540B3B805013385E74033051541B70828
:1086B0008000B3781501638A0800B305B640B3079C
:1086C000F7403336B600918FF9B7B365A8006386DB
:1086D0000518AA87C2854DBB6318080063010518F9
:1086E000BA87B285B684F5BEE30D05BED1B3B389B2
:1086F000C54033B535013389E7403309A940370513
:1087000080003375A90025C9B309B640B307F74007
:10871000333636013389C740B684630409064A8577
:10872000EFE0FFD0130785FFFD4763C2E70693071D
:108730000002998F3319E900B3D7F900B3E7270195
:10874000B395E900634F8706018F930617007D46B6
:108750006345D60413070002158F3396E70033D51F
:10876000D500B395E500498EB335B000D18DB3D7B0
:10877000D700014411BBB3E52901C5F1814701448C
:10878000D9A84E85EFE0BFCA1305050261BF930764
:1087900085FDB397F900814575B7051713060002EB
:1087A00033D7E70001456387C60013050004158D24
:1087B0003395A7004D8D3335A000B365A7008147E1
:1087C0004DBF198C370780FF7D17F98F75B9BA87B0
:1087D000B2852A8455B9BA87B2857DB11304F07F7A
:1087E00081478145370780007D8F11CB0504130732
:1087F000F07F630BE406370780FF7D17F98F13972F
:10880000D70113D53500598D1307F07F8D83631978
:10881000E4005D8D814709C5B70708000145814423
:1088200013174401B706F07FB207F2406244758F18
:10883000B183FE04D98F33E797004249D244B2494D
:10884000BA8505618280428481B1BA87B2852A8463
:1088500099B581478145814471B78147EDBF814515
:108860008144B707400089B98147814549BF797183
:108870004AD013D9450126D24ECE52CC5AC862C432
:108880009394C50006D622D456CA5EC61379F97FE2
:108890002A8A328B368CB18093D9F501630409089A
:1088A0009307F07F630BF90C935AD5018E04B3E460
:1088B0009A00B70A8000B3EA540113143500130973
:1088C00019C0814B1315CC009354C50013554C01AE
:1088D0009375F57F135CFC01E1C59307F07F638D11
:1088E000F510139534009357DB015D8DB7048000BC
:1088F000C98C931F3B00138515C0814713972B002C
:108900005D8F7D173946B3C68901B305A9406367FA
:10891000E610177603001306E6260A073297184377
:1089200032970287B3EAA40063830A06638C0402C9
:108930002685EFE0DFAF930755FF71476349F702E4
:10894000F54A130485FFB38AFA40B3948400B35AFE
:108950005A01B3EA9A0033148A009305D0C03389D0
:10896000A54085B7EFE0BFAC13050502E9B7930456
:1089700085FDB31A9A000144CDB7B3EAA400638C15
:108980000A002A84A68A1309F07F8D4B25BF014473
:108990000149854B05BF01441309F07F894B1DB781
:1089A000B3EF640163830F06638C04022685EFE056
:1089B0001FA8AA85938755FF71476349F702F546BB
:1089C000938F85FF9D8E3395F401B356DB00B3E49E
:1089D000A600B31FFB019306D0C03385B64031BF5C
:1089E0005A85EFE0DFA493050502E9B7138585FDFD
:1089F000B314AB00814FC5B7B3EF6401638B0F00B5
:108A0000DA8F1305F07F8D47D5BD81440145854739
:108A1000F5B581441305F07F8947CDB563E6540170
:108A200063969A2A6364F42B1396FA011357140081
:108A30009317F40193DA1A003364E6001395840067
:108A400093D88F01B3E8A800418133DEAA02939E38
:108A5000080193DE0E011357040113938F00B3FA3C
:108A6000AA0272863388CE03C20A33675701637C39
:108A7000070146971306FEFF636717016375070139
:108A80001306EEFF469733070741335EA702420401
:108A900041803377A702F2823388CE034207418FA9
:108AA000637C070146979302FEFF636717016375B6
:108AB00007019302EEFF46973304074142064168DF
:108AC000B3625600130EF8FF13D6020133F7C2014A
:108AD000135F0301337EC301B303EE02B304C60385
:108AE0003307EF02B30FE6033306970013D70301F2
:108AF000329763739700C29F135607017E96C16F2A
:108B0000FD1F3378F7014208B3F3F3011E98636742
:108B1000C4009684631EC40263FC07039A9733B7AC
:108B2000670046973A949384F2FF63E68800639166
:108B3000880263EF67006366C400631B860063F905
:108B400007019A9733B7670046979384E2FF3A94F8
:108B500033880741118CB3B707011D8CFD5F638714
:108B6000880EB35FA402135708013374A4027E86F3
:108B7000B387FE034204598C637CF4004694138649
:108B8000FFFF636714016375F4001386EFFF4694DB
:108B90001D8C3357A4024208135808013374A402F1
:108BA000BA87B38EEE02420433648800637CD4013A
:108BB00046949307F7FF636714016375D401930725
:108BC000E7FF469442065D8E93170601C183135753
:108BD00006013308EF023304D441330FFF02B38E92
:108BE000C703330EC70393D70E01729FFA9763F43E
:108BF000C70141673A9813D70701429741687D182A
:108C000033F507014205B3FE0E0176956366E40075
:108C1000631FE418B28F1DC94694930FF6FF63617A
:108C200014036366E4006313E418637DA3009317E1
:108C3000130033B367009A98930FE6FF46943E8380
:108C40006314E4006304650093EF1F009387F53F0E
:108C5000635BF00A13F77F0001CF13F7FF001146A3
:108C60006308C70013864F00B33FF601FE94B28F2E
:108C700037070001658F19C7B70700FFFD17FD8C87
:108C8000938705401307E07F6342F70693DF3F00B9
:108C90001397D4013367F70113D53400D207370691
:108CA000F07F3205B2502254F18F31815D8DFE0686
:108CB000B367D50092540259F249624AD24A424BF4
:108CC000B24B224C3A85BE8545618280FD158147B5
:108CD000B5B3CE86D684A28FDE870D47638AE70AB6
:108CE0000547638EE70A0947E392E7F60145014726
:108CF0009307F07F65B7E286CDB7B7040800814FD0
:108D000081468D47D9BF05451D8D130780036348F4
:108D1000A7087D476349A7049385E541B397B4004D
:108D200033D7AF00B395BF00D98FB335B000CD8F27
:108D300033D5A40013F7770001CF13F7F7001146DE
:108D40006308C70013874700B337F7003E95BA871B
:108D500037078000698F39E71317D5018D835D8F41
:108D60000D81814725BF0557B307F7401306000261
:108D7000B3D7F40001476306C5001387E543339773
:108D8000E4003367F7013337E000D98F01455DB761
:108D90003705080001479307F07F814601B7014579
:108DA0000147C1B7014501478547CDBD7E86B28FDA
:108DB00061BD370710007D1713D84501B378B700A0
:108DC000AA872A831378F87F13D5F501930EF07FD5
:108DD00093D54601758F328E93F5F57FFD8263182A
:108DE000D801B3EEF80063870E067955828063964A
:108DF000D501B36EC700E39A0EFE631F0804B3E704
:108E0000F80093B7170099E1598E21C2639A0700C1
:108E10006314D50063DA0501630705027D5582807E
:108E20007D5599C6368582806355B800E30805FEF6
:108E30008280E36317FF639CE800E36F6EFCE367E7
:108E4000C3FF0145828005458280E5FFF1B7E3EF6E
:108E5000E8FCC5BFE38F05F9E39C05FA81476DB7D0
:108E6000370710007D1713D84501B378B700AA87DC
:108E70002A831378F87F13D5F501930EF07F93D5ED
:108E80004601758F328E93F5F57FFD826318D80108
:108E9000B3EEF80063870E06094582806396D5011C
:108EA000B36EC700E39A0EFE631F0804B3E7F80031
:108EB00093B7170099E1598E21C2639A0700631492
:108EC000D50063DA0501630705027D5582807D5573
:108ED00099C6368582806355B800E30805FE828016
:108EE000E36317FF639CE800E36F6EFCE367C3FF77
:108EF0000145828005458280E5FFF1B7E3EFE8FC9C
:108F0000C5BFE38F05F9E39C05FA81476DB7797119
:108F10004ECE93D9450122D426D252CC56CA5EC633
:108F20009394C50006D64AD05AC893F9F97F2A848B
:108F3000B28BB68AB18013DAF50163810908930711
:108F4000F07F6386F90C9357D5018E04DD8CB7074B
:108F50008000DD8C13193500938919C0014B13D59E
:108F60004A011394CA001375F57F318093DAFA0130
:108F700069C19307F07F6307F51093D7DB010E04F7
:108F80005D8CB70780005D8C130515C093973B007F
:108F9000014793162B00D98E4E95FD16394833465E
:108FA0005A01930515006360D81017750300130567
:108FB00025C18A06AA969442AA96828633E9A4001D
:108FC00063000906638A04022685EFE04FC6130793
:108FD00055FFF14763C7E702F547130985FF998FEE
:108FE000B3942401B357F400DD8C331924019309A1
:108FF000D0C0B389A9409DB7EFE06FC31305050248
:10900000F9B7930485FDB31494000149CDB733E952
:10901000A400630B09002A899309F07F0D4B81B7E7
:1090200081448149054B25BF81449309F07F094B59
:109030003DB7B3677401B9CF630A04022285EFE03C
:109040000FBF930655FFF14763C8D70275479307D3
:1090500085FF158F3314F40033D7EB00598CB39789
:10906000FB001307D0C03305A7401DB75E85EFE0B6
:109070000FBC13050502F1B7130485FD33948B0073
:109080008147C5B7B367740191CBDE871305F07FC5
:109090000D4701B7014401450547E5BD01441305EE
:1090A000F07F0947FDB5416F930EFFFF135709018C
:1090B00093D807013379D901B3F7D701338828034F
:1090C000B306F902B30FF7023303F80113D8060110
:1090D0001A98330E17036373F8017A9E93530801AD
:1090E0003378D801B3F6D601135F0401B372D4010B
:1090F00042083698B30E5702B306590233092F03BC
:109100003303D90113D906011A993307E7036374AE
:10911000D90141631A97935E0901C169BA9E138709
:10912000F9FF3379E900F98E13D404014209F98C6F
:10913000338797023699CA933303F402B3869802B1
:10914000B3878802B388660093560701C69663F317
:109150006600CE9793D80601C169B38FF800938754
:10916000F9FFB3889202FD8E7D8FC206BA96B307CF
:109170005402B3049F0233038F02BE9413D4080138
:10918000A29463F3F4004E93C167FD1733F7F40024
:10919000B3F8F80042071E9E469733392E017697A2
:1091A00033042701369EB336DE00B308F401338F53
:1091B000D8003337D70133342401598CC180B3B878
:1091C000F801B336DF002694B3E6D80036941A943B
:1091D00093577F0126045D8C93179E00B3E7070128
:1091E000B337F000135E7E0113179F00B3E7C7018A
:1091F000D98F37070001618F4DCB13D71700858BAF
:10920000D98F1317F401D98F05809386F53F6350EA
:10921000D00A13F7770001CF13F7F7001145630861
:10922000A70013874700B337F7003E94BA87370784
:109230000001618F19C7370700FF7D17798C93866E
:1092400005401307E07F634ED70E13D737009317FF
:10925000D401D98F0D80139746013204B706F07FF1
:10926000758F3180598C7E06B2503367C40022540A
:1092700092540259F249624AD24A424BB24B3E855D
:10928000BA854561828052862684CA875A87894674
:109290006309D70A8D46630FD7088546E317D7F6CB
:1092A000014481479DA05686DDB7AA85B9BF054513
:1092B000158D13078003E345A7FE7D476349A70487
:1092C0009385E5413317B400B3D6A700B397B70031
:1092D000558FB337F000D98F3354A40013F77700BC
:1092E00001CF13F7F70091466308D70013874700B3
:1092F000B337F7003E94BA8737078000618F39E7AC
:109300001317D4018D83D98F0D808146A9B70557D6
:10931000158F130800023357E400814663060501E8
:109320009385E543B316B400D58FB337F000D98FDA
:1093300001446DB73704080081479306F07F01466A
:1093400019BF014481479306F07F31B7014481473B
:10935000854611B7370810007D180111B377B800A2
:1093600013D745013378D80013D3460122CC8E079A
:109370001374F77F1357D50126CAD98F93D4F501FB
:109380001357D601931535000E0806CE4AC84EC6AF
:109390001373F37F1305F07FFD82336707010E0619
:1093A0006315A3003365C70019E193C6160033089F
:1093B0006440639896226353000F63180302B366F8
:1093C000C700638306581305F8FF09E92E96333565
:1093D000B600BA97AA97B2850544B9A89306F07F5C
:1093E000631DD8001304F07F4DA29306F07F630E37
:1093F000D418B7068000558F42859306800363CB4F
:10940000A608FD4663C2A606130800023308A8405A
:10941000B3160701B358A60033160601B3E61601CA
:109420003336C000558E3357A7002E963335B6001D
:109430003E97B307A700B285370780007D8F63068C
:10944000071405041307F07F630DE448370780FF16
:109450007D17F98F13F5150013D71500598D9395C6
:10946000F701C98D858315A2930605FE93080002B6
:10947000B356D700014863081501130800043305EB
:10948000A8403318A7003366C8003336C000558E95
:10949000014761BF598E3336C000DDBF630B080A38
:1094A000330583400DE4B3E6B700638306429306B9
:1094B000F5FF99E6B295BA9733B6C500B29729BFC2
:1094C0001308F07F631D0501BA87B28521BF93069B
:1094D000F07FE30BD3FEB7068000D58FAA86130575
:1094E00080036343D5067D45634BD5021308000214
:1094F0003308D84033950701B3D8D500B39505019B
:1095000033651501B335B0004D8DB3D7D700B30522
:10951000C500BA9733B6C500B2971A8431BF138518
:1095200006FE9308000233D8A700014563871601A1
:1095300013050004158D3395A7004D8D3335A0001C
:109540003365A8008147E1B733E5B7003335A000A4
:10955000D5BF9306140013F5E67F3DE1B3E6B700EF
:1095600029E4638B0636B366C70085C22E96BA9788
:109570003335B600AA97370780007D8FB28511C7B3
:10958000370780FF7D17F98F054413F77500630CCB
:10959000073413F7F50091466307D7341387450066
:1095A0003335B700AA97BA853DAE99DE598EE30BE5
:1095B00006E28144B707400081451304F07F25A6E9
:1095C0001305F07F638DA6302E963335B600BA971B
:1095D000AA971395F7010582B365C5008583368484
:1095E0006DB76356000D63110308B366C700638D42
:1095F00006341305F8FF11E93386C54033B5C500BD
:10960000998F898FB2850544B1A09306F07FE30B53
:10961000D8DC9306800363C8A608FD4663CFA60482
:10962000130800023308A840B3160701B358A60078
:1096300033160601B3E616013336C000558E335794
:10964000A7003386C54033B5C5003387E740B3076D
:10965000A740B2853709800033F727011DD77D1950
:1096600033F92701AE895DAA9306F07FE30FD4F0AA
:10967000B7068000558F428569BF930605FE9308A3
:109680000002B356D700014863081501130800040F
:109690003305A8403318A7003366C8003336C0002E
:1096A000558E014779BF598E3336C000DDBF630543
:1096B000080C330583401DE833E8B7006308082829
:1096C0001308F5FF631B0800B305B640B307F74066
:1096D0003336B600918FB6843DB79308F07F6310A0
:1096E0001503BA87B2851304F07F7DA01308F07FBD
:1096F000E30903FF37088000B3E707012A88130551
:109700008003634605077D45634D0503930800020A
:10971000B38808413395170133DE0501B395150170
:109720003365C501B335B0004D8DB3D70701B3051F
:10973000A640B307F7403336B600918F1A84B6843B
:1097400011BF130508FE130E0002B3D8A700014590
:109750006308C80113050004330505413395A700CC
:109760004D8D3335A00033E5A8008147C9B733E5F7
:10977000B7003335A000D5BF130514001375E57F7E
:1097800025E933E8B7003365C70021E8631808000E
:109790006302051CBA87B285B684C5BBE30705DE44
:1097A0003388C540B3B805013385E740330515411B
:1097B000B7088000B3781501638A0800B305B64086
:1097C000B307F7403336B600918FF9B7B365A800F9
:1097D00063860518AA87C2854DBB6318080063011C
:1097E0000518BA87B285B684F5BEE30D05BED1B3C0
:1097F000B389C54033B535013389E7403309A94002
:10980000370580003375A90025C9B309B640B307F1
:10981000F740333636013389C740B68463040906FE
:109820004A85EFD0DFC0130785FFFD4763C2E70617
:1098300093070002998F3319E900B3D7F900B3E712
:109840002701B395E900634F8706018F9306170040
:109850007D466345D60413070002158F3396E70053
:1098600033D5D500B395E500498EB335B000D18D21
:10987000B3D7D700014411BBB3E52901C5F1814736
:109880000144D9A84E85EFD09FBA1305050261BFE8
:10989000930785FDB397F900814575B70517130642
:1098A000000233D7E70001456387C60013050004B3
:1098B000158D3395A7004D8D3335A000B365A700F6
:1098C00081474DBF198C370780FF7D17F98F75B918
:1098D000BA87B2852A8455B9BA87B2857DB1130497
:1098E000F07F81478145370780007D8F11CB0504CC
:1098F0001307F07F630BE406370780FF7D17F98FAE
:109900001397D70113D53500598D1307F07F8D8339
:109910006319E4005D8D814709C5B707080001455B
:10992000814413174401B706F07FB207F240624446
:10993000758FB183FE04D98F33E797004249D24433
:10994000B249BA8505618280428481B1BA87B28505
:109950002A8499B581478145814471B78147EDBF1C
:1099600081458144B707400089B98147814549BF96
:10997000370710009307F7FF33F7B700D181F58F52
:1099800093F5F57FD1821308F07F93F6F67F639508
:109990000501498F054509EB1307F07F01456395E4
:1099A000E600D18F3335F000828013D74501B7062A
:1099B00010009387F6FF1377F77F1306E03FED8FD4
:1099C000FD816354E6041306D0416358E600370571
:1099D00000801345F5FF2E958280D58F9306304386
:1099E000998E7D46634DD6001307D7BEB397E70027
:1099F0003355D5005D8D99C93305A040828013058C
:109A00003041198D33D5A700FDB70145828013D7AA
:109A10004501370810009307F8FF1377F77F130607
:109A2000E03FED8FAA86FD816351E6041306F04105
:109A30000D8E1385F5FF635BC702014585E91305AC
:109A40003043198D7D46B3E70701634AA60013072B
:109A5000D7BEB397E70033D5A6005D8D828013058E
:109A60003041198D33D5A700828001458280411194
:109A700006C622C426C229CD9357F54133C4A70098
:109A80001D8C9354F5012285EFD07F9A1307E04196
:109A9000A947098F63C8A702AD47898F5505B357FA
:109AA000F4003314A4002685B2075207B1837E0563
:109AB000D98FB24033E7A700228522449244BA8569
:109AC000410182805515B317A40026850144E9BFE2
:109AD00001478147E5BF411122C406C62A8429C136
:109AE000EFD0FF941307E041A947098F63C4A70291
:109AF000AD47898F5505B357F4003314A400B24025
:109B00002285B20722445207B183B366F700B685B7
:109B100041018280930755FFB317F4000144C5B794
:109B200081470147E9BFB706100013D64501938767
:109B3000F6FF1376F67F1307E03FED8F6354C706F9
:109B4000FD811307F0430D8F6353E602639C050408
:109B5000B3E5D7009307204363DFC7004111130625
:109B6000D6BC06C6EFD0FF89B24041018280138582
:109B7000F5FFAA85828093073043918F7D47634C20
:109B8000F7001306D6BE3396C5003355F500518D48
:109B9000B3D5F500828013053041118D33D5A50072
:109BA000814582800145EDBF011106CE22CC26CA37
:109BB0004AC84EC652C456C25AC03367B500630E77
:109BC0000714AE842A8493D9F50163D90500B3370D
:109BD000A000B304B0409D8C3304A0402689A5C8E2
:109BE0002685EFD0DF84AA8A130AE043330A5A415C
:109BF0009307304363C947072D47A2876354570330
:109C00001307A002634B57051309B00213875AFFCD
:109C10003309594133592401B394E400336999005D
:109C2000B317E4009314C900F2406244520AB180B1
:109C3000B3649A00FE0933E734014249D244B24981
:109C4000224A924A024B3E85BA850561828022856E
:109C5000EFD0EFFD930A050241BF93845AFD3319FB
:109C600094008147C1B79307604363D847032146F7
:109C7000330656412285A685EFD0EFF52A8B2E8933
:109C80002285A68513868A03EFD0AFF7B367B500A8
:109C9000B337F00033E46701CA842147A2876353D6
:109CA0005703130770026344570793058002138715
:109CB0008AFFB3855541B394E400B355B400CD8C0D
:109CC000B317E400370780FF7D17F98C13F777008F
:109CD00001CF13F7F70091466308D70013874700B9
:109CE000B337F700BE94BA8737078000658F09CB7A
:109CF000370780FF7D17130AF043F98C330A5A4166
:109D00008D831394D401C18F13D9340021BF938460
:109D10008AFDB3149400814775B701498147014A10
:109D2000814909B7011106CE22CC26CA4AC84EC6BF
:109D300052C4B367B500638B07122A842E89AE84A0
:109D4000B5C12E85EFD0AFEEAA89130AE043330ADE
:109D50003A419307304363C247072D47A2876353B5
:109D600037031307A002634437059304B002138737
:109D700059FFB3843441B3549400B315E900CD8C3A
:109D8000B317E400F24062449395C400520AB181D3
:109D90003367BA00D2444249B249224A3E85BA8565
:109DA00005618280EFD0AFE89309050279BF938502
:109DB00059FDB314B4008147F1B79307604363D5ED
:109DC0004703138689032285CA85EFD08FE34D8D23
:109DD0002146B334A000CA85228533063641EFD030
:109DE0008FDF33E4A4002E892147A287CA856354FC
:109DF00037031307700263453707138789FFB315CD
:109E0000E900130980023309394133592401B3654C
:109E1000B900B317E400370780FF7D17F98D13F7FA
:109E2000770001CF13F7F70091466308D700138737
:109E30004700B337F700BE95BA87370780006D8FAC
:109E400009CB370780FF7D17130AF043F98D330ADA
:109E50003A418D831395D501C98F93D435001DB731
:109E6000938589FDB315B400814775B78144814757
:109E7000014A09BF011126CA935475014AC84EC64A
:109E800052C49319950006CE22CC56C293F4F40F17
:109E90002E8A93D999001359F501B5C49307F00F91
:109EA0006380F4088E09B7070004B3E9F9009384CE
:109EB00014F8814A13557A0113149A001375F50F9B
:109EC0002580135AFA013DC59307F00F6301F50889
:109ED0000E04B70700045D8C130515F881479396AF
:109EE0002A00DD8EFD163947334649013385A440EB
:109EF0006368D70697650300938545D08A06AE96BA
:109F000098422E970287638409024E85EFD02FD2A4
:109F10009307B5FF9304A0F8B399F900898C51BF5A
:109F20009304F00F894AE38709F88D4A61B78144A9
:109F3000854A49B71DC02285EFD06FCF9307B5FF83
:109F40003314F4009307A0F83385A74041BF1305ED
:109F5000F00F894749D48D4759B70145854741B727
:109F60001318540063FE890C7D15814613540801B3
:109F700033D38902C167FD17B377F800C18233F785
:109F800089029A85B38867024207558F637C17015F
:109F900042979305F3FF6367070163751701930504
:109FA000E3FF429733071741B3588702337787029D
:109FB000B386170393170701468763FCD700C29740
:109FC0001387F8FF63E7070163F5D7001387E8FFFE
:109FD000C29713940501958F598CB337F0005D8CAF
:109FE0001307F507635AE0089377740099C79377CE
:109FF000F40091466383D7001104B7070008E18F8E
:10A0000099C7B70700F8FD177D8C1307050893075C
:10A01000E00F0D8063C7E704931777012604370725
:10A02000807FF98F25805D8C1315F601F240418DFC
:10A030006244D2444249B249224A924A056182802E
:10A040009396F90193D9190015B74A864E84D6879D
:10A050000D476382E70605476385E7060947E391F5
:10A06000E7F801441307F00F45BF5286D5B7370410
:10A07000400001468D47E9BF8547998F6D47634290
:10A08000F7041305E509B357F4003314A40033347F
:10A0900080005D8C9377740099C79377F400114723
:10A0A0006383E7001104B7070004E18F0D8099CBAB
:10A0B0000144054795B7370440001307F00F0146E8
:10A0C000A1BF0144014789BF01114AC81359750155
:10A0D00026CA4EC652C49314950006CE22CC56C250
:10A0E0001379F90F2E8AA5809359F50163070906A4
:10A0F0009307F00F6300F9088E04B7070004DD8CA6
:10A10000130919F8814A13557A0113149A0013752B
:10A11000F50F2580135AFA013DC59307F00F63012F
:10A12000F5080E04B70700045D8C130515F8814788
:10A1300013972A005D8F4A957D17B945B3C649012B
:10A140001306150063E7E506976503009385C5AE22
:10A150000A072E9718432E9702879DC02685EFD0B9
:10A160000FAD9307B5FF1309A0F8B394F4003309BA
:10A17000A94049BF1309F00F894AD1D48D4A61B76C
:10A180000149854A49B71DC02285EFD04FAA9307E0
:10A19000B5FF3314F4009307A0F83385A74041BFFF
:10A1A0001305F00F894749D48D4759B701458547B5
:10A1B00041B7C1671383F7FF13D704019355040117
:10A1C000B3F4640033746400B30894023308870264
:10A1D0003304B702B385950293D40801C295AE94B7
:10A1E00063F304013E94B3F76400C207B3F8680058
:10A1F000C69713976700C1803337E000E983269440
:10A20000D98F1A045D8CB7070008E18FB5C7935743
:10A21000140005885D8C1307F6076351E0069377F9
:10A22000740099C79377F40091456383B7001104D4
:10A23000B7070008E18F99C7B70700F8FD177D8CB5
:10A24000130706089307E00F0D8063DDE70601445E
:10A250001307F00F85A8CE862684D6870947E388A2
:10A26000E7FE0D47638BE7040547E396E7FA0144F1
:10A27000014789A8D286DDB72A8671BF8547998FA5
:10A280006D47E346F7FE1306E609B357F4003314AF
:10A29000C400333480005D8C9377740099C7937742
:10A2A000F40011476383E7001104B7070004E18F4E
:10A2B0000D80DDDF0144054731A03704400013075E
:10A2C000F00F81469317770126043707807FF98FB7
:10A2D00025805D8C1395F601F240418D6244D24495
:10A2E0004249B249224A924A05618280411106C61A
:10A2F00022C426C25DC59357F54133C4A7001D8C07
:10A300009354F5012285EFD08F929307E0092A87B5
:10A310003385A7409307600963C4A702A14763D5AB
:10A32000E70061173314E40026045E052580498C9C
:10A330001395F401B240418D224492444101828040
:10A340009307900963DDA7009547998F9306B7019E
:10A35000B357F4003314D400333480005D8C954738
:10A3600063D6E7009307B7FF3314F400B70600FC89
:10A37000FD1693777400E18E91C73D889147630382
:10A38000F4009106B7070004F58F89CBB70700FCEE
:10A39000FD17FD8E9307F0093385E74013D436008F
:10A3A00061B78144014449B7411122C406C62A84D9
:10A3B000814705C1EFD0AF879307E009898F130765
:10A3C00060096341F70221476355A7006115331403
:10A3D000A4002604258013957701B240418D2244C4
:10A3E0004101828013079009635DF7001307B501EF
:10A3F00095463317E400898E3337E0003354D40098
:10A40000598C15476356A7001307B5FF3314E400B2
:10A41000370700FC7D1793767400618F91C63D88E5
:10A4200091466303D4001107B7060004F98E81CA70
:10A43000B70700FCFD177D8F9307F009898F135430
:10A44000370041BF135775011377F70F4111930779
:10A45000170022C426C21314950006C693F7E70F0F
:10A4600025809354F5018DC793573400130707389F
:10A470007604B2075207B1831395F401D98FB24025
:10A4800033E7A700228522449244BA8541018280A5
:10A490001DEB814779DC2285EFC07FF9A94763CEA8
:10A4A000A700AD47898F13075501B357F400331444
:10A4B000E40013079038098F6DBF930755FFB3175A
:10A4C000F4000144FDB7814719C49357340037079E
:10A4D00008007604D98F1307F07F61BF03A78100BE
:10A4E0004111B687328806C68328C7003E86AA86F1
:10A4F0002E8797E70300938767AC630A080097E508
:10A5000003009385A5AC46855925EF60627997874E
:10A5100003009387E78D3E88DDB74111B28601467F
:10A5200006C66D3F294681456F40E045A946014674
:10A530006F402040AA8703A581002E86BE856F60EC
:10A54000426A411106C6EF602268B24041016FB015
:10A55000101E8397C500011122CC4EC606CE26CA16
:10A560004AC893F687002E84AA89DDEA0567130797
:10A570000780D441D98F2396F5006351D010185429
:10A5800041CBC207C183856683A40900FD8E23A049
:10A5900009004C4CE5EA854601464E850297FD5779
:10A5A0006309F5108357C40018544C4C918B99C71C
:10A5B00054401C58158D99C35C5C1D8D2A868146BC
:10A5C0004E850297FD576311F50C03A70900831709
:10A5D000C40063010710F5466305D700D94663142C
:10A5E000D70814487D771307F77FF98F2316F400F7
:10A5F0002322040014C00C5823A0990091C993078A
:10A6000004046385F5004E85EF6022602328040270
:10A610000145F2406244D2444249B2490561828018
:10A6200003A90501E30609FE84411397070141834D
:10A630000D8B23A02501B3842441814711E3DC491C
:10A640001CC463469000E9B72A99E35390FC5C5020
:10A650004C4CA6864A864E858297898CE346A0FE9E
:10A660008357C4007D5593E70704F2402316F40096
:10A670006244D2444249B24905618280D85DE340D8
:10A68000E0F079B728481DB78357C4007D771307DA
:10A69000F77FF98F1448C207C18713D7C700231665
:10A6A000F4002322040014C093771700A9D728C808
:10A6B00099B783A70900E38707EE75476382E7022E
:10A6C0005947638FE7008357C40093E707042316B5
:10A6D000F40081B77D771307F77F1448F98F75BFB2
:10A6E00023A09900014535B7411122C426C206C6F0
:10A6F0004AC0AA842E8419C11C5D95CF8317C4005B
:10A7000001499DC37850058B01E793F7072095C752
:10A71000A28526853D3D7C502A89858B91E783570C
:10A72000C40093F707208DC7B240224492444A8563
:10A73000024941018280B12AD1B7284CEF60E22959
:10A74000A285268539357C502A89858BF1FFC1BFCA
:10A75000284CEF606229B240224492444A85024963
:10A760004101828035C541114AC003A9810022C43C
:10A7700006C626C22A84630509008327890395CF6C
:10A780008317C40081449DC37850058B01E793F77C
:10A7900007209DC7A2854A856D3B7C50AA84858B86
:10A7A00091E78357C40093F7072099CFB240224422
:10A7B000024926859244410182804A85D928C9B739
:10A7C000284CEF608221F9B7284CEF60E221F9BFF5
:10A7D00017E503000325053497050000938505F16F
:10A7E00099A197B500009385A57B35A97C51858BF0
:10A7F00091E78357C50093F7072099C301458280ED
:10A80000284D411106C6EF60421DB240014541018D
:10A8100082807C51858B91E78357C50093F7072091
:10A8200099C301458280284D411106C6EF60C21BC5
:10A83000B240014541018280411126C213068006C3
:10A840009384F5FFB384C4024AC02E8922C406C68D
:10A8500093854407EF6002382A8401CD3105232017
:10A8600004002322240108C4138684068145EF00D6
:10A870007072B24022852244924402494101828092
:10A8800017E503000325052997B500009385457159
:10A8900059AE011126CAAA8417A5FEEF1305C57E7D
:10A8A00006CE22CC4AC84EC652C456C2EF60E2124F
:10A8B0009C5C63910712C040170700001307A7F2C2
:10A8C000D8DC9387C42E0D4723A2E42E23A4F42EB4
:10A8D00023A0042E91475CC421468145232204060F
:10A8E000232004002322040023240400232804003E
:10A8F000232A0400232C04001305C405EF009069EB
:10A90000971A0000938A8A32171A0000130ACA3570
:10A91000971900009389893A171900001309293EF5
:10A920001305840540CC232054032322440323240D
:10A93000340323262403EF6082068044C167A50701
:10A940005CC42146814523220406232004002322DF
:10A9500004002324040023280400232A0400232CB9
:10A9600004001305C405EF00F0621305840540CC14
:10A9700023205403232244032324340323262403C3
:10A98000EF60E201C044B7070200C9075CC421467A
:10A9900081452322040623200400232204002324CB
:10A9A000040023280400232A0400232C0400130598
:10A9B000C405EF00305E1305840540CC232054030A
:10A9C000232244032324340323262403EF50327D1F
:10A9D00085479CDC6244F240D2444249B249224A53
:10A9E000924A17A5FEEF1305256A05616F50D27FC5
:10A9F00001114EC6AA8917A5FEEF130525664AC8A0
:10AA000006CE22CC26CA52C4EF50327D17E903008D
:10AA10000329491083278903C1CF1309092EFD5447
:10AA2000114A8327490003248900FD1763D70700D3
:10AA30009DA813048406638897060317C400FD17B6
:10AA40006DFBC17785075CC41305840523220406CA
:10AA5000EF50F27417A5FEEF13054560EF50D27862
:10AA60002146232004002324040023220400232859
:10AA70000400232A0400232C040081451305C40587
:10AA8000EF00505123280402232A04022322040445
:10AA900023240404F24022856244D2444249B2494C
:10AAA000224A056182800324090011C4228995BFCE
:10AAB0004A85C5339DB79305C01A4E85EF60821154
:10AAC0002A8405C13105232004002322440108C43F
:10AAD0001306001A8145EF00F04B232089002289DC
:10AAE00089B72320090017A5FEEF13052557EF505E
:10AAF000B26FB14723A0F90071BF17A5FEEF130590
:10AB0000E5556F50926D17A5FEEF130525556F5053
:10AB1000B26D17A5FEEF130525576F50126C17A5E0
:10AB2000FEEF130565566F50326C411117A5FEEF0D
:10AB30001305C55206C6EF50526AB24003A5810004
:10AB4000970500009385C5CA410185A803A581002A
:10AB5000411197050000938505CC06C6B928B2407F
:10AB600017A5FEEF1305854F41016F50F26739714C
:10AB70001303C10236D69A8606CE3AD83EDA42DCB4
:10AB800046DE1AC6EF808032F24021618280397140
:10AB90002A8E03A581001303810232D436D62E8675
:10ABA0009A86F28506CE3AD83EDA42DC46DE1AC6EE
:10ABB000EF80C02FF2402161828001114AC84EC649
:10ABC00052C456C25AC006CE22CC26CA2E8B930A35
:10ABD000052E014A85497D5983A44A0003A48A00B1
:10ABE000FD1463C304028357C400FD1463FAF90023
:10ABF0008317E400228563852701029B336AAA003C
:10AC000013048406E39124FF83AA0A00E3960AFC56
:10AC1000F2406244D2444249B249924A024B5285C0
:10AC2000224A0561828079714AD04ECE52CC56CAF2
:10AC30005AC85EC606D622D426D2AA8AAE8B130B79
:10AC4000052E014A85497D5983244B0003248B003E
:10AC5000FD1463C404028357C400FD1463FBF900B0
:10AC60008317E400A285568563852701829B336A9A
:10AC7000AA0013048406E39024FF032B0B00E315C2
:10AC80000BFCB250225492540259F249D24A424B20
:10AC9000B24B5285624A456182806304056C5D71E6
:10ACA000CAC086C6A2C4A6C24EDE52DC56DA5AD844
:10ACB0005ED662D466D26AD06ECE2E896387051ABC
:10ACC000AA89B284368ABA8ABE8B4284630D06187A
:10ACD0005040635C36190A064A9608426307051815
:10ACE00097D5030093858531EF10C0105C40630C4D
:10ACF000055C63880712638F041283C7040013077F
:10AD0000D0026388E7141307B002094B6384E71489
:10AD100017D5030013058536EFC0920D333BA00015
:10AD2000060B03C704009307A00302C66315F700D0
:10AD3000854785043EC6084885476300F51C584092
:10AD400093172700CA979C436381071263060A1072
:10AD50003E85094697D503009385452AEF00B00547
:10AD60005840144893172700CA9763020510884378
:10AD700063880B00034605009307B002630AF60ED2
:10AD8000638B04023695834505002685EF007077B6
:10AD9000AA84630C053C5840034615009305A003A4
:10ADA00093172700CA970348050014488843630D8A
:10ADB000B62623260401850614C836958347050068
:10ADC0006394071E85471CC823200400FD5D814550
:10ADD00063120B58184C631F072E584005072E9717
:10ADE00058C07D576389ED1C63840A0023A0BA0113
:10ADF00093974D003E9A83278A000325CA0099C382
:10AE000088C30145B640264496440649F259625A21
:10AE1000D25A425BB25B225C925C025DF24D616190
:10AE2000828085475CC01CC8232A0400232C0400B0
:10AE3000E39504EC17D5030013054524EFC0427BCE
:10AE400018488547630C05106304F728094B02C6B0
:10AE5000FDB5054B8504F1B593172700CA978843C4
:10AE600014488DF089BFE39506E67D5561BF8843A0
:10AE70008547E397F6F0094697D5030093850518B3
:10AE8000EF0060736300052018485C409305D00311
:10AE90008A07CA9788433A95EF00B066AA8B630881
:10AEA00005425840144893172700CA978843B38C2B
:10AEB000AB40B38CDC4083250A00E38305EC528D64
:10AEC000FD5D014C21A883250D01050C410D638218
:10AED0000528584014480A074A970843668636955D
:10AEE000D92D75F103250D00EF20801963049535E8
:10AEF000FD576397FD34E28DF9B7631AAB025840F2
:10AF000093172700CA979C43ADD383C60700130647
:10AF1000D002E38DC6E263860B001306B002E3871E
:10AF2000C6E205071CC0854758C05CC4E1BD89471F
:10AF3000631AFB02584093172700CA979C4395D782
:10AF400083C607001306D0026388C600E38F0BF0A8
:10AF50001306B002E39BC6F0094BCDBB02C6014B02
:10AF6000E31FF7DC5840232C040093172700CA97EF
:10AF7000884358C81DC5130617009305D00213084F
:10AF8000B00283460500638AB60263840B006386C1
:10AF90000603144CC84350C0850614CC050691071F
:10AFA0006DF158C07D55B9BD23200400854763115C
:10AFB0000B3A638EF63A4844B1B597D503009385B2
:10AFC000E503EF003063E31C05D61C4C5048938822
:10AFD00017001317260093D617404A9793D81840A6
:10AFE0006353D038139826008A07BA86B305F70052
:10AFF0003A9803AEC5FF03A306009106F11523AEF0
:10B00000C6FF23A06500E316D8FEBA978C4314430D
:10B0100005050CC394C31107F117E34915FF930706
:10B0200016005CC07D55F9BB83C724008506B30BB1
:10B03000D500638DC70423260401FD5D03C70B0003
:10B040009306D0036300D70263020702054723205B
:10B05000740118C88145E30F0BD614480547E392E5
:10B06000E6D8A5BB03C71B00850B6DF35840050749
:10B07000635637050A074A971843854614C818C00F
:10B080008545D1BF89471CC8094701B5232604015E
:10B09000FD5D03C70B009306D0036315D70003C7FC
:10B0A0001B00850B3337E0003307E040B3FBEB00B8
:10B0B00005472320740118C8814571BF1444E5E297
:10B0C000B24758C03305F0406D991305F5031DBB19
:10B0D00002C68DB5032E4401938E15003306D701A9
:10B0E00093162E0093581740369913531640635702
:10B0F00010270A078A08CA864A97CA980328C7FFF2
:10B1000088429106711723AE06FF08C3E398D8FE64
:10B1100013172600CA864A9701460328C7FF8842AC
:10B12000050623A00601232EA7FE91067117E3460C
:10B1300066FE0547638AEE0083260900032749005F
:10B140002322D9002320E90013071E002E9758C0A0
:10B1500049B97D57639EED0A58401448931727005C
:10B16000CA978843E39004C2B9B11C44639207189C
:10B1700054401C48139726003A9903270900850775
:10B180001CC8BA9783C7070089E78506854754C05E
:10B190001CC89307F0035CC41305F003A5B19389A1
:10B1A000810003A70900032509004C47EFA0D079CF
:10B1B00003A7090017D50300130505EA4C47EFA0C4
:10B1C000B0787D57638BED1603A709001305D002F5
:10B1D0004C47EF60C15F03A7090093974D003E9A6B
:10B1E0004C4703250A00EFA03076B247B307F04082
:10B1F000ED9B9387F7035CC483A7090017D5030071
:10B20000130545E5CC47EFA03074584005074DBD08
:10B2100013974D005297544305478144E380E6E27B
:10B220000946E388C6E618C8232004008145E303E5
:10B230000BBA65B693174C00D297D443E28DE9BFA1
:10B24000184421DB938481009840032509004C4772
:10B25000EFA0906F984017D50300130565DA4C47AF
:10B26000EFA0906E584094400A073A99CC460325C7
:10B270000900EFA0706D984017D50300130505D99C
:10B280004C47EFA0706C984093974D003E9A4C4706
:10B2900003250A00EFA0506B9C4017D5030013054F
:10B2A000E5D8CC47EFA0506A9C4003250D00CC4761
:10B2B000EFA090699C4017D503001305E5D7CC4754
:10B2C000EFA09068F9B585077D555CC025BE5C4050
:10B2D0008A07CA978843EF10B05A5840AA8B14487F
:10B2E00093172700CA978843B38CDB40AA9BE1B62B
:10B2F000938481009C4003250900CC47EFA0D064D3
:10B300009C4017D50300130565D3CC47EFA0D0634D
:10B310005C40184894408A07CA979C43CC46BA9729
:10B3200003C50700EF60A14A9C4017D50300130531
:10B3300065D2CC47EFA0506125BD83A7090003C5A6
:10B340000400CC47EF60A14883C704005CC46DB51E
:10B35000E393F6C60507484458C06DB4E35B60DC70
:10B3600045BB7D5582808A07E35B10CB79B9FD5DD3
:10B3700081458DB4397122DC26DA4AD84ED652D4B2
:10B3800056D25AD0976AFEEF938A8A18176BFEEF4F
:10B39000130B4B18138A4100938901001769FEEFC4
:10B3A0001309C9169764FEEF938404161764FEEF21
:10B3B0001304441583220B0083AF0A00032F0A00F5
:10B3C00083AE0900032E090003A3040083280400B0
:10B3D0001308410081470147814606DE16C27EC43C
:10B3E0007AC676C872CA1ACC46CE45389247F25011
:10B3F0002320FB00A247025B23A0FA00B247925A27
:10B400002320FA00C247225A23A0F900D247B2599A
:10B410002320F900E24742599CC0F247D2541CC095
:10B42000625421618280397122DC26DA4AD84ED6F4
:10B4300052D456D25AD0976AFEEF938A6A0D176B90
:10B44000FEEF130B2B0D138A41009389010017693E
:10B45000FEEF1309A90B9764FEEF9384E40A1764C7
:10B46000FEEF1304240A83220B0083AF0A00032F8C
:10B470000A0083AE0900032E090003A304008328F9
:10B48000040013084100814706DE16C27EC47AC656
:10B4900076C872CA1ACC46CEEFF03F809247F2507F
:10B4A0002320FB00A247025B23A0FA00B247925A76
:10B4B0002320FA00C247225A23A0F900D247B259EA
:10B4C0002320F900E24742599CC0F247D2541CC0E5
:10B4D000625421618280397122DC26DA4AD84ED644
:10B4E00052D456D25AD0976AFEEF938A6A02176BEB
:10B4F000FEEF130B2B02138A410093890100176999
:10B50000FEEF1309A9009764FEEF9384E4FF17642C
:10B51000FEEF130424FF83220B0083AF0A00032FE6
:10B520000A0083AE0900032E090003A30400832848
:10B53000040013084100854706DE16C27EC47AC6A1
:10B5400076C872CA1ACC46CEEFF02FF59247F25069
:10B550002320FB00A247025B23A0FA00B247925AC5
:10B560002320FA00C247225A23A0F900D247B25939
:10B570002320F900E24742599CC0F247D2541CC034
:10B5800062542161828036888147014781466FF08D
:10B59000CFF03E8881476FF04FF03E8885476FF0CF
:10B5A000CFEFAA8503A581006F50C262AA8503A5CB
:10B5B00081006F5082658D4763F0C702B367B500A5
:10B5C0008D8B8D469DEF18419C41631CF7027116CF
:10B5D00011059105E3E9C6FE9306F6FF0DC2850647
:10B5E000AA9619A0630DD5008347050003C705007F
:10B5F00005058505E388E7FE3385E7408280014540
:10B6000082809306F6FFE1BF93364600AA82330399
:10B61000C500A5EEB346B5008D8AA5EA9376350040
:10B620009143BDEE9373C3FF138303FE6362A304D0
:10B630007D8A0100984118C1DC415CC103A88500E6
:10B640002324050183A8C50023261501984918C99C
:10B65000DC495CC903A88501232C050183A8C50129
:10B6600093850502232E150113050502E374A3FC3F
:10B670001383C3FF6369A3000D8A9841910518C124
:10B680001105E37CA3FE3303C50009CA0387050047
:10B6900085052300E5000505E36A65FE16858280C1
:10B6A000B386D340B683038705008505FD162300C6
:10B6B000E5000505EDFA3306764093362600F1F6EF
:10B6C00095B7000063F2A502B387C500637EF5005D
:10B6D0003307C50045CA83C6F7FFFD177D17230052
:10B6E000D700E39AF5FE8280BD4763E1C702AA87CF
:10B6F0009306F6FF49CE8506BE9603C7050085076B
:10B700008505A38FE7FEE39AD7FE8280B3E7A50005
:10B710008D8BB5EB930806FF93F808FFC10833083B
:10B7200015012E87AA8714434107C10723A8D7FE16
:10B73000832647FF23AAD7FE832687FF23ACD7FEA5
:10B740008326C7FF23AED7FEE31FF8FC1377C6009E
:10B75000C6951378F6000DCF2E87BE880D4E0323B5
:10B7600007001107B306E84023A06800AE969108D1
:10B77000E367DEFE1307C8FF719B11070D8ABA97B6
:10B78000BA95BDB782809306F6FFAA87ADB78280CF
:10B790004286B9BF3D432A876375C3029377F7009A
:10B7A000C9E363970506937606FF3D8ABA960CC3F4
:10B7B0004CC30CC74CC74107E36BD7FE63130600AD
:10B7C0008280B306C3408A0697020000969667807F
:10B7D000A6002307B700A306B7002306B700A305FA
:10B7E000B7002305B700A304B7002304B700A303E1
:10B7F000B7002303B700A302B7002302B700A301D9
:10B80000B7002301B700A300B7002300B700828070
:10B8100093F5F50F93968500D58D93960501D58DFB
:10B8200059B7939627009702000096968682E78084
:10B8300086FA9680C1171D8F3E96E374C3F895B7BC
:10B840000000397132D436D63AD83EDA42DC46DED0
:10B850002E860C45341006CE36C6EF80A04DF24041
:10B860002161828003A38100397132D436D62ED271
:10B870003AD83EDA42DC46DE8325830054102A861D
:10B880001A8506CE36C6EF80E04AF24021618280FA
:10B8900010456FE0100283A78100AA8590473E857E
:10B8A0006FE03001797122D42A842E8526D206D603
:10B8B000AE84EF10E07C13071500976603009386B3
:10B8C00026573AC61C5C180836CC3AC2854609474A
:10B8D00026C82ACA36CE3AC40444A5C3F850839673
:10B8E000C400058B93970601C18301E713F7072076
:10B8F00035C30967F98F89EBFC50D98E79777D17AD
:10B90000F98F2396D400FCD022855000A685EFA0A5
:10B910009022FC503334A00033048040858B1364A4
:10B92000A40091E783D7C40093F7072099CBB250C6
:10B93000228522549254456182802285EFE07FF572
:10B9400071BFA84CEF50420AB25022852254925443
:10B9500045618280A84CEF5042088396C4009397BB
:10B960000601C18379B7AA8503A5810025BF83A7F6
:10B97000810023A4A70A23A6070A828003A88100C6
:10B98000B785954C9385D5F28326880A0327C80A84
:10B99000B387B60213861700B337F6002324C80A0C
:10B9A00037F651581306D6423386C6023307B7021C
:10B9B000B3B6B60232973697BA9713951700232677
:10B9C000F80A05818280AA8703A581002E86BE859C
:10B9D0006F50A2207571A2DC86DEA6DA3AC13EC3A2
:10B9E00042C546C732832A846346060693078020F1
:10B9F000231AF1002EC42ECC3686140163090302EB
:10BA00007D13FD542C001AC81ACE231B910036C298
:10BA1000EF308012635595009307B0081CC0A24711
:10BA200023800700F6506654D65449618280FD5445
:10BA30002C0002C802CE231B910036C2EF30C00F8B
:10BA4000635595009307B0081CC0F6506654D65451
:10BA5000496182809307B0081CC17D55FDB73571DF
:10BA6000A2DC86DEA6DA36C73AC93ECB42CD46CF47
:10BA700003A4810063C7050693078020231AF10001
:10BA80002AC42ACC740195C99387F5FFFD542C0074
:10BA900022853EC83ECE231B910036C2EF30C0093E
:10BAA000635595009307B0081CC0A2472380070088
:10BAB000F6506654D6540D618280FD542C002285C8
:10BAC00002C802CE231B910036C2EF30E006635558
:10BAD00095009307B0081CC0F6506654D6540D610B
:10BAE00082809307B0081CC07D55FDB73571930E59
:10BAF000C1083ECB37030080C1772E8E1343F3FF7E
:10BB000036C7938787202C00F68686DE3ECA3AC960
:10BB100042CD46CF72C472CC1ACE1AC876C2EF306C
:10BB2000A001A24723800700F6500D618280357185
:10BB30002A8E03A58100930E81083ECB3703008037
:10BB4000C1771343F3FF32C536C7938787202E860C
:10BB5000F6862C0086DE3ECA3AC942CD46CF72C474
:10BB600072CC1ACE1AC876C2EF20107DA24723806D
:10BB70000700F6500D61828035713ECB930740205F
:10BB800086DEA2DC32C52E8436C73AC942CD46CF06
:10BB9000231AF1002AC42ACCEF10804EAA8703A5ED
:10BBA00081003EC63ECE970700009387A70B340165
:10BBB0003ED422862C00FD5702DC82C6231BF100F6
:10BBC00036C2EF405050F65066540D618280357198
:10BBD000A2DC3ECB2A84930740202E8586DEA6DA9F
:10BBE00036C7B2843AC942CD46CF231AF1002EC4DB
:10BBF0002ECCEF10E048AA873EC63ECE9707000045
:10BC00009387470674013ED426862C002285FD5773
:10BC100002DC82C6231BF10036C2EF40D04AF65048
:10BC20006654D6540D618280411122C42E848395BE
:10BC3000E50006C6EF40B261634905003C48B240EA
:10BC4000AA973CC82244410182808357C4007D7773
:10BC50007D17F98FB2402316F400224441018280FF
:10BC6000014582808397C500011122CC26CA4AC8AB
:10BC70004EC606CE13F707102E84AA848395E500DE
:10BC80003289B6890DE37D777D17F98F2316F4008D
:10BC90006244F240CE864A86B24942492685D24461
:10BCA00005616F40D25D89460146EF4052558317CA
:10BCB000C4008315E400C1BF411122C42E848395C2
:10BCC000E50006C6EF40B253FD57630DF5008357FC
:10BCD000C4000567B240D98F28C82316F400224457
:10BCE000410182808357C4007D777D17F98FB24070
:10BCF0002316F4002244410182808395E5006F40C1
:10BD0000725293F6F50F93773500D9CA638B07000B
:10BD100083470500C1C76384D708050593773500BD
:10BD2000E5FB93F5F50F93978500DD8D184113938F
:10BD300005013363B3003708FFFE3346E300130801
:10BD4000F8EFB3070601B30507011346F6FF1347E3
:10BD5000F7FFF18F6D8FB7888080D98F938808089F
:10BD6000B3F717019DE35841110533466700B30748
:10BD70000701B30506011347F7FF1346F6FFF98FD6
:10BD80006D8ED18FB3F71701F9DF8347050099C78F
:10BD90006381F606834715000505FDFB014582809A
:10BDA00081CB83470500E5DF050593773500F5FB7B
:10BDB00018413706FFFE1306F6EFB307C700B78634
:10BDC00080801347F7FFF98F93860608F58F91EB74
:10BDD00058411105B307C7001347F7FFF98FF58FD7
:10BDE000E5DB83470500C5DF834715000505EDFF4B
:10BDF000828082803367B500FD530D8B79E7B7876A
:10BE00007F7F9387F7F710419441B372F600336355
:10BE1000F600BE92B3E262006398720C6318D60615
:10BE20005041D441B372F6003363F600BE92B3E2E0
:10BE300062006399720A631BD60410459445B3727D
:10BE4000F6003363F600BE92B3E262006392720AB8
:10BE5000631ED6025045D445B372F6003363F60034
:10BE6000BE92B3E26200639B72086311D60210496E
:10BE70009449B372F6003363F600BE92B3E26200F7
:10BE8000639472085105D105E30FD6F61317060126
:10BE900093970601631CF7001357060193D7060119
:10BEA0003305F7409375F50F91E982804183C18393
:10BEB0003305F7409375F50F91E182801377F70F03
:10BEC00093F7F70F3305F74082800346050083C6DA
:10BED0000500050585056314D600E31806FE330545
:10BEE000D640828011059105E311D6FE014582807E
:10BEF0002105A105E31BD6FC014582803105B10572
:10BF0000E315D6FC014582804105C105E31FD6FA41
:10BF10000145828000000000B367B5008D8BB1EF52
:10BF20009841B7867F7F9386F6F7B377D700B697A9
:10BF3000D98FD58F7D56639BC7042A867D5818C23A
:10BF4000D84191051106B377D700B697D98FD58F11
:10BF5000E38707FF83C7050003C7150083C62500D5
:10BF60002300F60099C7A300E60001C72301D6000D
:10BF700091E28280A30106008280AA8703C70500A0
:10BF800085078505A38FE7FE75FB82802A86D9B7D2
:10BF90000000AA8503A5810009A0411122C42A84BA
:10BFA0002E8506C626C24AC0AE84EF10600D130966
:10BFB0001500CA852285EF40F2412A8409C54A86C8
:10BFC000A685EFF06FE4B2402285224492440249F4
:10BFD00041018280AE871307E008B285636DF700E8
:10BFE00017460300130646E91398270032980327E3
:10BFF000080032970287411106C6638006343686F0
:10C000003E85EF60105963050532B24041018280E0
:10C0100017C503001305456E828017C5030013057D
:10C02000256C828017C5030013050567828017C53C
:10C0300003001305E567828017C503001305052675
:10C04000828017C5030013056561828017C5030050
:10C0500013050548828017C503001305E56F82802C
:10C0600017C5030013050510828017C503001305CB
:10C07000E50B828017C5030013054565828017C54F
:10C0800003001305E56A828017C503001305C5394F
:10C09000828017C503001305A52C828017C50300F5
:10C0A00013054519828017C503001305A528828052
:10C0B00017C5030013050517828017C50300130574
:10C0C000E56A828017C503001305051B828017C52A
:10C0D00003001305A537828017C503001305855992
:10C0E000828017C503001305E555828017C503003C
:10C0F00013054552828017C5030013052550828021
:10C1000017C503001305854D828017C5030013056D
:10C11000E54A828017C5030013054547828017C58D
:10C12000030013056544828017C503001305C54F3E
:10C13000828017C503001305655D828017C5030063
:10C1400013050541828017C503001305A53E8280B3
:10C1500017C503001305C53C828017C503001305EE
:10C16000653A828017C5030013050539828017C51B
:10C17000030013052537828017C5030013054534D6
:10C18000828017C5030013052532828017C503007E
:10C1900013054530828017C503001305252E8280C4
:10C1A00017C503001305053E828017C5030013055C
:10C1B000E52B828017C503001305C52A828017C5A9
:10C1C00003001305E527828017C5030013058524A6
:10C1D000828017C5030013052522828017C503003E
:10C1E00013054520828017C503001305A51C828016
:10C1F00017C503001305451B828017C503001305EF
:10C20000A519828017C5030013058517828017C5FD
:10C2100003001305E515828017C503001305C51239
:10C22000828017C503001305E50F828017C5030040
:10C230001305450E828017C503001305250C828067
:10C2400017C5030013058509828017C50300130570
:10C25000E506828017C503001305C500828017C557
:10C260000300130525FF828017C50300130585FA17
:10C27000828017C503001305E5F8828017C5030007
:10C28000130505F7828017C503001305A5F5828005
:10C2900017C50300130585F3828017C50300130536
:10C2A00025F2828017C50300130545F0828017C56B
:10C2B0000300130565EE828017C50300130585ECA6
:10C2C000828017C50300130525E9828017C5030086
:10C2D000130585E7828017C503001305E5E3828017
:10C2E00017C50300130505E2828017C50300130577
:10C2F000A5DF828017C50300130545DE828017C5C0
:10C300000300130525DC828017C50300130585DAB9
:10C31000828017C50300130525D8828017C5030046
:10C3200013054546828017C50300130525D6828074
:10C33000176503001305C5ABC9B9AA86C9B1AA859B
:10C3400003A581008146014671B1AA8503A581003C
:10C350008146014641B15C4913D7F7411377077D08
:10C360001307C7F993F63700BA97B1E613074006EB
:10C3700033E7E702054621C35C4D184D93061002D2
:10C3800092070607BA97B29763D3F6027D77130731
:10C39000E795BA9713075003636DF700174703003B
:10C3A000130747D18A07BA979C43BA97828763DB02
:10C3B00007000145828013070019B3E7E70213B6AF
:10C3C00017005DBFE3E7F6FE17470300130707DC1E
:10C3D0008A07BA979C43BA978287054582807D5524
:10C3E00082805971A6D2CAD0CECE86D6A2D4D2CC63
:10C3F000D6CADAC8DEC6E2C4E6C2EAC06EDE834749
:10C4000006002A89AE8981449DCF056B896A368AE8
:10C41000014C8144130B0BE1938AFA70974B030094
:10C42000938B5B95130750026385E7021387F9FF2F
:10C4300063FDE40A3307990005062300F70085042D
:10C4400083470600E5F36383090A26992300090060
:10C4500071A8834C160093070003638DFC0A9307B1
:10C46000B0026389FC0A66879307F7FC93F7F70F1E
:10C47000A14613041600814C014D63F9F60A930797
:10C4800050046305F7089307F0046301F708930766
:10C49000B7FD93F7F70F9306500563E8F604974648
:10C4A0000300938626D78A07B6979C43B697828760
:10C4B00083268A00E38D0612B1476384F600B3E653
:10C4C000F6029307900433059900B385994017C687
:10C4D00003001306E62C6306F70017C603001306D5
:10C4E000A62CEFE02002635305088144B650265481
:10C4F0000659F649664AD64A464BB64B264C964CE8
:10C50000064DF25D268596546561828003471400CE
:10C510000504B5BF03472600A14613042600930770
:10C52000F7FC93F7F70F014DE3EBF6F4228529466C
:10C530000C08EF20805F42442A8D0347040081B736
:10C540009307400633059900B385994017C6030049
:10C55000130606256306F70017C603001306C62454
:10C560008326CA00EFD0107AE34105F8AA94E3FECF
:10C5700034F783470400E38807EC13061400C9B5B9
:10C580009307B00633059900B385994017C6030099
:10C59000130686216306F70017C60300130646201C
:10C5A00083268A00EFD01076E35205FC3DBF832737
:10C5B0008A00174703001307274593A7C70093C7AF
:10C5C0001700938787028A07BA9783AC470066856E
:10C5D000EF00102B59DD9385F9FFE3F8B4F0330633
:10C5E0009500A68713050005054811A88507B30621
:10C5F000F900A38FE6FE638EC706E3F8B7EE834625
:10C60000040033879740669703470700E390A6FE30
:10C61000B306770183C606008D8AE39906FD1307EA
:10C6200007021377F70FD9B783270A01139727005B
:10C63000974703009387473DBA9783AC0700668509
:10C64000EF0010241DD59385F9FFE3F0B4EA33061B
:10C650009500A68719A0E3FAB7E8850733879740C6
:10C6600066978346F7FF3307F900A30FD7FEE394DD
:10C67000C7FEBE84FDBD5285F93983274A01AA8CC5
:10C68000E3C3070E13074006B3E7E702930640062D
:10C69000E69717C603001306A610B3859940330525
:10C6A0009900B3E7D70293874706B3E6D702EFD0E6
:10C6B0007065E35D05EA15BD8326CA0117C6030050
:10C6C0001306C610B385994085063305990011BD40
:10C6D00083260A0117C603001306860CE5B7832DCF
:10C6E0004A01894713A74D896373FD00094D33083B
:10C6F0009900B3859940E3C90D0293074006B3C77B
:10C70000FD02CD07639A0C7817C60300130686084E
:10C71000975603009386C66D3307ED404285EFD0F0
:10C72000705EE35505E4D1B383260A0103254A016F
:10C730000327CA00B30C9900B38599408506634569
:10C74000057C93074006B367F50217C6030013067E
:10C75000E6056685EFD0105BE35A05E079B39307F1
:10C7600050022308F10063910C629307B002A30802
:10C77000F1009146930C210117C60300130606042D
:10C78000F9456685EFD01058635BA060669509ADEA
:10C7900083264A01528536C27D3E92462A8713A6D9
:10C7A000468963C5067E930D4006B3CDB603B687B2
:10C7B000CD0D93054006B3E7B702634E0766E30E5F
:10C7C00007001306408963CEC6580146BA977D57C5
:10C7D000638DE766130740066394E700850D814784
:10C7E00013074006B38DED02BE9D6315065813076F
:10C7F000B0021C08639CEC5263F8BA012308910153
:10C800009307110163100D58130750022380E700AE
:10C810001307000313852700A380E70005A35285B3
:10C820001D3E83278A01194799C31387F7FF854661
:10C830006351A06217C60300130686F6B3859940BC
:10C840003305990079B903274A0083268A0017C661
:10C850000300130626F8B385994033059900EFD0FD
:10C86000704AE35505D051B1974C030083ACCC23FB
:10C870006685EF00F00083C70C00E38C07CED286FC
:10C880006686B385994033059900A13EE35FA0C455
:10C89000AA94C5B183264A0071BF83278A0117472E
:10C8A000030013076716E1078A07BA9783AC0700EE
:10C8B0006685EF00E07CE30E05CA9385F9FFE3F699
:10C8C000B4C233069500A68719A0E3F0B7C2850766
:10C8D0003387974066978346F7FF3307F900A30F26
:10C8E000D7FEE394C7FEBE8469B183278A01174748
:10C8F000030013076711F1078A07BA9783ACC700D3
:10C900006685EF00E077E30605C69385F9FFE3FE51
:10C91000B4BC33069500A68719A0E3F8B7BC850719
:10C920003387974066978346F7FF3307F900A30FD5
:10C93000D7FEE394C7FEBE842DB983270A011747AB
:10C9400003001307670CB1078A07BA9783AC070087
:10C950006685EF00E072E30E05C09385F9FFE3F60C
:10C96000B4B833069500A68719A0E3F0B7B88507D9
:10C970003387974066978346F7FF3307F900A30F85
:10C98000D7FEE394C7FEBE84EDB69387F9FFE3FEBE
:10C99000F4B4B3079900130750022380E70085041D
:10C9A000C9BE9387F9FFE3F2F4B4B30799002947AE
:10C9B0002380E700850475BE974C030083AC0C13FD
:10C9C00066857D2D4DBD83270A028148014363DAC8
:10C9D0000742032D4A01930740068326CA019303A9
:10C9E000FDFFB3C3F302930FBDFB1357FD41B3B774
:10C9F000AF017D173E979357F7418D8BBE9FB3B71D
:10CA0000FF00BA971397E7019300BD1293DD27400B
:10CA10009307001993DF2F00B36FF701130DADFBE0
:10CA200093DCF641032F8A0003274A0003280A00FB
:10CA30009352FF41935EF741135EF84117C603001E
:10CA4000130606DAB385994033059900B3C0F002A6
:10CA5000B3877F4093D3F341B3BFFF00B3837D40DF
:10CA6000B383F341930FD016330DFD03B38F17003B
:10CA700093D0F0419E90B3B7FF008697B383AF0188
:10CA8000135DFD41B3BFF301EA979E96BE9FB3B31A
:10CA90007600E69F9E9F9397160093D0F60193939E
:10CAA0001F00BE96B3E37000B3B7F6009E9FFE97DB
:10CAB0008E07939F3600F5827E9FD58F9697B3366B
:10CAC000FF01B697931F4F009352CF0193964700F3
:10CAD000338FEF41B3E6D200B3BFEF019D8EB38633
